:100000000C94BA100C94BBDA0C9490DA0C9465DA68
:100010000C943ADA0C940FDA0C94E4D90C94B9D914
:100020000C948ED90C94EB100C94EB100C94EB10F8
:100030000C94EB100C94EB100C94EB100C948AF6CF
:100040000C94EB100C94389F0C94609D0C942E56DD
:100050000C94EB100C94EB100C94EB100C9444D912
:100060000C94EB100C942CCC0C9402CC0C94EB1054
:100070000C94EB100C94EB100C94EB100C94EB1014
:100080000C94E9F30C9463F30C94DDF20C94EB10F4
:100090000C94EB100C94EB100C94EB100C94EB10F4
:1000A0000C94EB100C94EB100C94C7EF0C9457F2DB
:1000B0000C9423EF0C94EB100C94EB100C94B3F114
:1000C0000C940FF10C946BF00C94EB100C94EB105F
:1000D0000C94EB100C94EB100C94CCCB0C94A2CBA6
:1000E0000C94EB100C94CD4E0C9422D50C94591C0E
:1000F0000C9484790C9484B60C944E4F0D946F211B
:100100000C94986D0C9469780C94032C0C942279BF
:100110000C947CD40C94EC1E0C94EF780C94AE737D
:100120000C94AF170C9445FC0C94CDAF0C94D9787B
:100130000C9491D70C9481790C946EBB0C944F78ED
:100140000C948BC30C9461D70C945BAC0C948F878C
:100150000C945C4D0C9421AD0C9433DB0C942B115E
:100160000C947DD70C94362A0C94DC980C94BBB478
:100170000C94DCD30C9455D70D94DC1F0C946A7945
:100180000C9474190C945D540C942E740C94BB252F
:100190000C942B590C9451D70C94B87A0C940B9A5C
:1001A0000C940FDB0C94C44A0C94FFAB0C94A5790F
:1001B0000C949C790C942B500C941BBF0C941ED562
:1001C0000C94F0790C94C3180C948D790C9491785C
:1001D0000C94CFB40C944EAF0C949E2C0C9461797B
:1001E0000C94CF790C9431790C941E2D0C9479E3F6
:1001F0000C946AAD0C944F200C94A4BB0C947855CD
:100200000C942D110C942BE40C945B790C9415BC7C
:100210000C9435BC0C949CAF0C94ED100C94B678F7
:100220000C9409B00C94C6790C94067A0C9474AFB3
:100230000C9442990C94B3C00C94BB4C0C942E11AA
:100240000C943A790C9469D70C94B1790C946E7A29
:100250000C9482780C948E780C945CEA0C94E87878
:100260000C94C0790C9472AC0C94FF2B0C94F2D7C4
:100270000C94E9C20C9496790C94C9D70C94BFD70E
:100280000C9490D30C948B1A0C9495D70C94CABCF4
:100290000C94CDD70C9444120C9455790C94E1CE67
:1002A0000C9478D20D94B5220C941DB80C949079CE
:1002B0000C9454EA0C9442580C94B4790C9466EA69
:1002C0000D94E0210C946FBC0C9464BE0C94F8ACBB
:1002D0000C946AD50C942CAA0C9428C40C9480D449
:1002E0000C9474D40C946BC10C945EEA0C9424D4DA
:1002F0000C9484AD0C94BC870C94D1BC0D94AB22AF
:100300000C94BFA90C949DB50C944F390C94EEE558
:100310000C9416AC0D94561F0C94D1D70C9471D735
:100320000C94A9350C9472780C94FC780C949DD79D
:100330000C9414AD0C9429110C9460EA0C9448D3DD
:100340000C94FAD00C9479790D94C6210C94C4D4F1
:100350000C941EC20C9448120C94EEAF0C94DE79EF
:100360000C9404D80C94A4AF0C94D0D40C94074EE5
:100370000C94C1AB0C94ADE30C94AE790C946AEA86
:100380000C946C780C94BC510C9448750C9482DBE2
:100390000C942A920C9452790C94C1480C948B11B1
:1003A0000C94DCAF0C9406160C94798C0C943BDB0B
:1003B0000C9459780C94E1AD0C9407790C94E5AF4A
:1003C0000C94A6450C943BE30C94E6B60C940C56A6
:1003D0000C9470510C9446790C94F6100C94DD1624
:1003E0000C945BBE0C9487790C94FEC20C9496BD61
:1003F0000C9478D40C9468390C94E0D60C94FD7964
:100400000C9411DB0C94E3170C9498AD0C943C986D
:100410000C946F780C94B4D80C942E380C94BBB612
:100420000C94BCD20C94ECD70C943CB80C9489D7A7
:100430000C9420D40C943BC30C94FAD70C94037AFC
:100440000C947B210C946CD40D94C3210C9456EA2B
:100450000C9477AD0D9499210C945C7D0C94FD2344
:100460000C9410530C9492140C945AEA0C94107936
:100470000C94FCDA0C9414870C94CC790C9477C30C
:100480000C94342B0C9430110C9446780C947C2FE3
:100490000C947A170C94C3790C94291B0C94424A3F
:1004A0000C94EA790C94F9860C9413790C94DF1B64
:1004B0000C94C5AF0C9494780C946DD70C94497936
:1004C0000C9400B00C94157E0D9470220C9416D5EB
:1004D0000C94C54F0C94B5B40C9489110C947F788E
:1004E0000C9404B50C9488BE0C94D0C00C94905914
:1004F0000C947A720C94356C0C9478AB0C94C37B8E
:100500000C942DAD0C9400D80C94B3870C94E4D7C4
:100510000C94DE7A0C9475310C9476790C94461711
:100520000C9456BD0C947F790C945DD70C949F79F4
:100530000C948A790C94AECC0C94667A0C9410E3EB
:100540000C9432110C9484390C940CB60C94F379FD
:100550000C9416790C9468C30C94ECB40C94377911
:100560000C948DD70C944DBB0C942DAC0C9404586A
:100570000C943E870C949C2C0C9428230C9402879A
:100580000C94F2100C9402730C9454DB0C94A81687
:100590000C945DAF0C94E6860C94AFB60C94A22C30
:1005A0000C9469DB0C9455780C943D790C9443AD14
:1005B0000C94F7B60C9448AF0C9453240C943479F3
:1005C0000C9465D70C9444370C94F6790C946525FB
:1005D0000C941C790C94DB790C94A1870C94017910
:1005E0000C94D4D70C9499D70C94EE1C0C940C7AE0
:1005F0000C9419790C94B6120C94CBAD0C94F7AF03
:100600000C94DF530C9428790C94DED70C94F1BD34
:100610000C946DBE0C9468D10C94DEE50C9499BEDC
:100620000C94AA870C947C790C9455240C94FE713C
:100630000C9450C20C94D5500C9419260C94D89A52
:100640000C9414AA0C945ABF0C9476BE0C942B797B
:100650000C94BA790C947C780C9405980C94587985
:100660000C9493AA0C943ABD0C94426E0C94CF6BEC
:100670000C948A6E0C948E130C9479D70C94E779B1
:100680000C9466D50C94DAAB0C94DFAC0C94DBC301
:100690000C9440790C946D790C946E2E0C9471BB73
:1006A0000C94F5110C940EBC0C947FBE0C9468EA6B
:1006B0000C94D4B60C9448530C94A8790C9447DB52
:1006C0000C94E0780C945DAD0C94B9570C94D2D492
:1006D0000C94ED790C9452EA0C944E520C9462EA0C
:1006E0000C9481D70C94046E0C946CEA0C9463788F
:1006F0000C941F790D9431200C9448870C9428D4C5
:100700000C94C8150C94D16C0C9460780C94BD7941
:100710000C94F9780C942FBD0C94E1790C94D6AD1F
:100720000C94D4BB0C9450EA0D9480210C94E8BD39
:100730000C94CEE50C944B6B0C94A0990C949F8276
:100740000C9493E30C9400D30C944EEA0C9489AC73
:100750000C94C8CF0C9487BB0C94C8D40C94F4B4FC
:100760000C945FAB0C9464980C94D9820C944F79E0
:100770000C9443790C94BEB80C942B5A0C94351EEF
:100780000C940D790C9403980C9485780C94F311C7
:100790000C94F0D10C9476940C949FBD0C94F3B50A
:1007A0000C9475DB0C94C34D0C9499790C94B52C76
:1007B0000C9458EA0C9415D70C9448BE0D94741FF1
:1007C0000C949CBE0C9464790C9470790C9407DBA7
:1007D0000C94097A0C94B5490C94A3AD0C94AF28F1
:1007E0000C94E1860C94C9790C9452780C9464EAC8
:1007F0000C9493790C94BC580C94F6D70C946678AE
:100800000C941AD50C94EA120C94F0B50C94F08662
:100810000C941EBF0C9423BD0C9453E50C94B97F2B
:100820000C945D780C9473790C94E8D70C94D2797D
:100830000C9444D30C9470D40C9411170C94E47958
:100840000C94AB790C9440B50C948D110C94FFD79B
:100850000C94B5800C9431E50C9407160C94647CD0
:100860000C94AEAD0C94DAD70C942E790C9475D709
:100870000C94D2BE0C94B7790C9441E50C94F4100E
:100880000C94784A0C944C780C940EC00D94E7218B
:100890000C948BBE0C94BA240C948B780C944378F3
:1008A0000C9488780C94007A0C940A390C94CCD46B
:1008B0000C9494230C9499C30C9475780C94C822CE
:1008C0000C94D8D30C9476870C94C67E0C9461BD9E
:1008D0000C94A2790C94D4D30C9441B60C948BCC88
:1008E0000C9413DB0C9498870C94C7E30C94D4A954
:1008F0000C94D3D80C9467790C948CD30C944C79C9
:100900000C9425790C9485D70C94D5790C940BDB39
:100910000C9446120C945E790C94AD970C941025AF
:100920000C94FA790C94FBC20C94A7C10C948087A8
:100930000C94E5C20C94FBA90C94657A0C94C5D771
:100940000C945A930C94E8120C9401B60C9489E51B
:100950000C9456AF0C9459D70C9431B50C9449783B
:100960000C9413900C94689A0C944DD70C946ED5FB
:100970000C9464AF0C94D8790C945FE30C945234CB
:100980000C9419D70C94CC4B0C9409DB0C940A7979
:100990000C9451BF0C94FF97526573657420636F7C
:1009A0006E74726F6C2069732063757272656E74F9
:1009B0006C792064697361626C65642E00436F6DAD
:1009C0006D732068616C7465642E204E65787420A8
:1009D000627974652077696C6C2072657365742028
:1009E0007468652041726475696E6F2E000A5061EB
:1009F000676520686173206E6F74206265656E2084
:100A0000696D706C656D656E7465642079657400E0
:100A10000A426F6F7374206C6F6F6B757020746116
:100A2000626C65000A326E642049676E6974696F92
:100A30006E204D6170000A326E64204675656C2030
:100A40004D6170000A506167652039204366670078
:100A50000A5472696D2031205461626C65000A5637
:100A60005654204D6170000A426F6F7374204D61BF
:100A700070000A5067203620436F6E666967000A6F
:100A8000414652204D6170000A5067203420436671
:100A900067000A49676E6974696F6E204D61700066
:100AA0000A5067203220436667000A5645204D6190
:100AB00070004572723A20556E6B6E6F776E2063D0
:100AC0006D64000A3D3D3D436F6D6D616E6420486D
:100AD000656C703D3D3D0A0A416C6C20636F6D6D25
:100AE000616E6473206172652073696E676C652046
:100AF00063686172616374657220616E6420617203
:100B00006520636F6E636174656E617465642077E0
:100B100069746820746865697220706172616D65BE
:100B200074657273200A776974686F7574207370C6
:100B3000616365732E53796E7461783A20203C634B
:100B40006F6D6D616E643E2B3C706172616D65749A
:100B50006572313E2B3C706172616D6574657232F5
:100B60003E2B3C706172616D657465724E3E0A0A7F
:100B70003D3D3D4C697374206F6620436F6D6D6120
:100B80006E64733D3D3D0A0A41202D204469737017
:100B90006C617973203331206279746573206F66DC
:100BA0002063757272656E74537461747573207608
:100BB000616C75657320696E2062696E617279205F
:100BC000286C6976652064617461290A42202D20B1
:100BD0004275726E2063757272656E74206D6170FD
:100BE00020616E6420636F6E66696750616765207F
:100BF00076616C75657320746F20656570726F6DBA
:100C00000A43202D205465737420434F4D20706F8C
:100C100072742E2020557365642062792054756E9D
:100C2000657273747564696F20746F2073656520D5
:100C30007768657468657220616E20454355206948
:100C400073206F6E206120676976656E2073657210
:100C500069616C200A20202020706F72742E20524F
:100C6000657475726E7320612062696E617279209D
:100C70006E756D6265722E0A4E202D205072696E5F
:100C800074206E6577206C696E652E0A50202D20C9
:100C90005365742063757272656E74207061676548
:100CA0002E202053796E7461783A2020502B3C70AE
:100CB0006167654E756D6265723E0A52202D205344
:100CC000616D65206173204120636F6D6D616E649D
:100CD0000A53202D20446973706C61792073696711
:100CE0006E6174757265206E756D6265720A512051
:100CF0002D2053616D65206173205320636F6D6DEE
:100D0000616E640A56202D20446973706C617920ED
:100D10006D6170206F7220636F6E666967506167E6
:100D2000652076616C75657320696E2062696E61FD
:100D300072790A57202D20536574206F6E652062EA
:100D400079746520696E206D6170206F7220636F09
:100D50006E666967506167652E202045787065630F
:100D600074732062696E61727920706172616D6561
:100D7000746572732E200A2020202053796E7461CE
:100D8000783A2020572B3C6F66667365743E2B3C87
:100D90006E6577627974653E0A74202D2053657400
:100DA0002063616C6962726174696F6E2076616C38
:100DB0007565732E202045787065637473206269B1
:100DC0006E61727920706172616D65746572732EE7
:100DD00020205461626C6520696E646578206973B7
:100DE0002065697468657220302C200A202020203C
:100DF000312C206F7220322E202053796E7461784E
:100E00003A2020742B3C74626C655F6964783E2BD9
:100E10003C6E657756616C7565313E2B3C6E65772F
:100E200056616C7565323E2B3C6E657756616C750C
:100E3000654E3E0A5A202D20446973706C617920FA
:100E400063616C6962726174696F6E2076616C7542
:100E500065730A54202D20446973706C6179732086
:100E600032353620746F6F7468206C6F6720656E42
:100E7000747269657320696E2062696E6172790AA5
:100E800072202D20446973706C617973203235367D
:100E900020746F6F7468206C6F6720656E74726960
:100EA00065730A55202D2050726570617265206649
:100EB0006F72206669726D7761726520757064610A
:100EC00074652E20546865206E657874206279748C
:100ED000652072656365697665642077696C6C204E
:100EE0006361757365207468652041726475696E0D
:100EF0006F20746F2072657365742E0A3F202D2059
:100F0000446973706C6179732074686973206865D3
:100F10006C702070616765002C2000575545004FAC
:100F20003200496E6C65742074656D7000436F6F9C
:100F30006C616E7400526573657420636F6E7472B9
:100F40006F6C2069732063757272656E746C7920A2
:100F500064697361626C65642E00436F6D6D73200C
:100F600068616C7465642E204E65787420627974B3
:100F7000652077696C6C2072657365742074686590
:100F80002041726475696E6F2E00537065656475DB
:100F9000696E6F203230323230372E320073706516
:100FA000656475696E6F20323032323037004552D9
:100FB000523B20496E636F727265637420454550E1
:100FC000524F4D2073697A65003030310020002087
:100FD00000200020002020202000000080002001B0
:100FE0002001800020018000F0008001C000C000CE
:100FF0002001C0008000200100010000200023002B
:10100000260029002C002F003200000100000301FF
:10101000060109010505050507050808080802027B
:1010200002020A0A08080404040401010101010182
:1010300001010303030303030303040707070C0C65
:101040000C0C0C0C0C0C020202020606060606062C
:1010500006060B0B0B0B0B0B0B0B010210202008D1
:101060000810204010204080020102010804020103
:101070000102040810204080804020100804020172
:1010800080040201804020100804020108040201CB
:101090000102040810204080010204081020408052
:1010A00000000A0B02090C0D0E08070304010000E2
:1010B0000000000000000000000000000000000030
:1010C00000000000000000000000000012111000ED
:1010D0000000000000000000000000000000000010
:1010E000000000000000537065656475696E6F0054
:1010F000537065656475696E6F20323031392E30FA
:10110000382D73657200537065656475696E6F2064
:1011100063737830323031392E3800040E11191BC8
:1011200020292B2D2F31333537393B3D3F41434566
:10113000474B4D4F515557595D61666D7700000023
:1011400000963007772C610EEEBA51099919C46DDB
:10115000078FF46A7035A563E9A395649E3288DB36
:101160000EA4B8DC791EE9D5E088D9D2972B4CB60D
:1011700009BD7CB17E072DB8E7911DBF906410B703
:101180001DF220B06A4871B9F3DE41BE847DD4DA25
:101190001AEBE4DD6D51B5D4F4C785D38356986C52
:1011A00013C0A86B647AF962FDECC9658A4F5C01D3
:1011B00014D96C0663633D0FFAF50D088DC8206ED7
:1011C0003B5E10694CE44160D5727167A2D1E403C3
:1011D0003C47D4044BFD850DD26BB50AA5FAA8B5E2
:1011E000356C98B242D6C9BBDB40F9BCACE36CD8D5
:1011F00032755CDF45CF0DD6DC593DD1ABAC30D973
:10120000263A00DE518051D7C81661D0BFB5F4B47C
:101210002123C4B3569995BACF0FA5BDB89EB80285
:10122000280888055FB2D90CC624E90BB1877C6F0A
:101230002F114C6858AB1D61C13D2D66B69041DC45
:10124000760671DB01BC20D2982A10D5EF8985B1D2
:10125000711FB5B606A5E4BF9F33D4B8E8A2C9078D
:101260007834F9000F8EA8099618980EE1BB0D6A24
:101270007F2D3D6D08976C6491015C63E6F4516BC2
:101280006B62616C1CD83065854E0062F2ED95068C
:101290006C7BA5011BC1F4088257C40FF5C6D9B0F9
:1012A0006550E9B712EAB8BE8B7C88B9FCDF1DDD5A
:1012B00062492DDA15F37CD38C654CD4FB5861B2AE
:1012C0004DCE51B53A7400BCA3E230BBD441A5DF8A
:1012D0004AD795D83D6DC4D1A4FBF4D6D36AE96949
:1012E00043FCD96E34468867ADD0B860DA732D04FC
:1012F00044E51D03335F4C0AAAC97C0DDD3C710532
:1013000050AA41022710100BBE86200CC925B568D3
:1013100057B3856F2009D466B99FE461CE0EF9DE1C
:101320005E98C9D9292298D0B0B4A8D7C7173DB3C1
:1013300059810DB42E3B5CBDB7AD6CBAC02083B8EB
:10134000EDB6B3BF9A0CE2B6039AD2B1743947D561
:10135000EAAF77D29D1526DB048316DC73120B638C
:10136000E3843B64943E6A6D0DA85A6A7A0BCF0EF3
:10137000E49DFF099327AE000AB19E077D44930FB9
:10138000F0D2A3088768F2011EFEC206695D5762AB
:10139000F7CB67658071366C19E7066B6E761BD4E8
:1013A000FEE02BD3895A7ADA10CC4ADD676FDFB9B9
:1013B000F9F9EFBE8E43BEB717D58EB060E8A3D65D
:1013C000D67E93D1A1C4C2D83852F2DF4FF167BBA9
:1013D000D16757BCA6DD06B53F4B36B248DA2B0DB8
:1013E000D84C1B0AAFF64A0336607A0441C3EF605B
:1013F000DF55DF67A8EF8E6E3179BE69468CB36129
:10140000CB1A8366BCA0D26F2536E2685295770C62
:10141000CC03470BBBB91602222F260555BE3BBA9B
:10142000C5280BBDB2925AB42B046AB35CA7FFD790
:10143000C231CFD0B58B9ED92C1DAEDE5BB0C2645D
:101440009B26F263EC9CA36A750A936D02A90609B8
:101450009C3F360EEB8567077213570005824ABF23
:1014600095147AB8E2AE2BB17B381BB60C9B8ED2AA
:10147000920DBED5E5B7EFDC7C21DFDB0BD4D2D3F8
:101480008642E2D4F1F8B3DD686E83DA1FCD16BE72
:10149000815B26B9F6E177B06F7747B718E65A084F
:1014A00088706A0FFFCA3B06665C0B0111FF9E65E0
:1014B0008F69AE62F8D3FF6B6145CF6C1678E20A94
:1014C000A0EED20DD75483044EC2B3033961266710
:1014D000A7F71660D04D476949DB776E3E4A6AD15F
:1014E000AEDC5AD6D9660BDF40F03BD83753AEBCE2
:1014F000A9C59EBBDE7FCFB247E9FFB5301CF2BD68
:10150000BD8AC2BACA3093B353A6A3B4240536D059
:10151000BA9306D7CD2957DE54BF67D9232E7A66F2
:10152000B3B84A61C4021B685D942B6F2A37BE0BA7
:10153000B4A18E0CC31BDF055A8DEF022D000000F5
:101540000041311B1982623632C3532D2B04C56C06
:101550006445F4777D86A75A56C796414F088AD9C5
:10156000C849BBC2D18AE8EFFACBD9F4E30C4FB536
:10157000AC4D7EAEB58E2D839ECF1C98875112C286
:101580004A1023D953D370F4789241EF6155D7AE06
:101590002E14E6B537D7B5981C9684830559981B49
:1015A0008218A9009BDBFA2DB09ACB36A95D5D7736
:1015B000E61C6C6CFFDF3F41D49E0E5ACDA2248402
:1015C00095E3159F8C2046B2A76177A9BEA6E1E8F6
:1015D000F1E7D0F3E82483DEC365B2C5DAAAAE5DD5
:1015E0005DEB9F464428CC6B6F69FD7076AE6B3126
:1015F00039EF5A2A202C09070B6D381C12F3364696
:10160000DFB2075DC6715470ED30656BF4F7F32AF5
:10161000BBB6C231A275911C8934A00790FBBC9F58
:1016200017BA8D840E79DEA92538EFB23CFF79F325
:1016300073BE48E86A7D1BC5413C2ADE58054F79D8
:10164000F0447E62E9872D4FC2C61C54DB018A1527
:101650009440BB0E8D83E823A6C2D938BF0DC5A028
:10166000384CF4BB218FA7960ACE968D130900CC77
:101670005C4831D7458B62FA6ECA53E177545DBB43
:10168000BA156CA0A3D63F8D88970E96915098D727
:10169000DE11A9CCC7D2FAE1EC93CBFAF55CD762A4
:1016A000721DE6796BDEB554409F844F5958120E77
:1016B000161923150FDA7038249B41233DA76BFDC3
:1016C00065E65AE67C2509CB576438D04EA3AE9127
:1016D00001E29F8A1821CCA73360FDBC2AAFE12428
:1016E000ADEED03FB42D83129F6CB20986AB244877
:1016F000C9EA1553D029467EFB687765E2F6793F43
:101700002FB7482436741B091D352A1204F2BC5326
:101710004BB38D485270DE657931EF7E60FEF3E6A3
:10172000E7BFC2FDFE7C91D0D53DA0CBCCFA368A76
:1017300083BB07919A7854BCB13965A7A84B9883AD
:101740003B0AA99822C9FAB50988CBAE104F5DEFC4
:101750005F0E6CF446CD3FD96D8C0EC27443125AA5
:10176000F3022341EAC1706CC1804177D847D73674
:101770009706E62D8EC5B500A584841BBC1A8A4148
:10178000715BBB5A6898E87743D9D96C5A1E4F2DC4
:10179000155F7E360C9C2D1B27DD1C003E12009829
:1017A000B9533183A09062AE8BD153B59216C5F474
:1017B000DD57F4EFC494A7C2EFD596D9F6E9BC077C
:1017C000AEA88D1CB76BDE319C2AEF2A85ED796BB4
:1017D000CAAC4870D36F1B5DF82E2A46E1E136DEB5
:1017E00066A007C57F6354E8542265F34DE5F3B264
:1017F00002A4C2A91B6791843026A09F29B8AEC558
:10180000E4F99FDEFD3ACCF3D67BFDE8CFBC6BA9B3
:1018100080FD5AB2993E099FB27F3884ABB0241C38
:101820002CF115073532462A1E73773107B4E17063
:1018300048F5D06B513683467A77B25D634ED7FA5E
:10184000CB0FE6E1D2CCB5CCF98D84D7E04A129625
:10185000AF0B238DB6C870A09D8941BB84465D2324
:1018600003076C381AC43F1531850E0E2842984F75
:101870006703A9547EC0FA795581CB624C1FC538E5
:10188000815EF423989DA70EB3DC9615AA1B005425
:10189000E55A314FFC996262D7D85379CE174FE1A0
:1018A00049567EFA50952DD77BD41CCC62138A8D75
:1018B0002D52BB963491E8BB1FD0D9A006ECF37E25
:1018C0005EADC265476E91486C2FA05375E8361225
:1018D0003AA90709236A5424082B653F11E479A724
:1018E00096A548BC8F661B91A4272A8ABDE0BCCB75
:1018F000F2A18DD0EB62DEFDC023EFE6D9BDE1BCE5
:1019000014FCD0A70D3F838A267EB2913FB924D024
:1019100070F815CB693B46E6427A77FD5BB56B659F
:10192000DCF45A7EC5370953EE763848F7B1AE0974
:10193000B8F09F12A133CC3F8A72FD2493000000BF
:1019400000376AC2016ED4840359BE4602DCA8097E
:1019500007EBC2CB06B27C8D0485164F05B8511338
:101960000E8F3BD10FD685970DE1EF550C64F91A18
:10197000095393D8080A2D9E0A3D475C0B70A32695
:101980001C47C9E41D1E77A21F291D601EAC0B2F2A
:101990001B9B61ED1AC2DFAB18F5B56919C8F235AA
:1019A00012FF98F713A626B111914C7310145A3CEC
:1019B000152330FE147A8EB8164DE47A17E0464DA2
:1019C00038D72C8F398E92C93BB9F80B3A3CEE448C
:1019D0003F0B84863E523AC03C6550023D58175E2C
:1019E000366F7D9C3736C3DA3501A9183484BF576A
:1019F00031B3D59530EA6BD332DD01113390E56B0D
:101A000024A78FA925FE31EF27C95B2D264C4D62F7
:101A1000237B27A0222299E62015F3242128B478DD
:101A20002A1FDEBA2B4660FC29710A3E28F41C717D
:101A30002DC376B32C9AC8F52EADA2372FC08D9A40
:101A400070F7E75871AE591E739933DC721C2593F9
:101A5000772B4F517672F11774459BD57578DC89D9
:101A60007E4FB64B7F16080D7D2162CF7CA474801B
:101A700079931E4278CAA0047AFDCAC67BB02EBCF8
:101A80006C87447E6DDEFA386FE990FA6E6C86B52D
:101A90006B5BEC776A025231683538F369087FAFC7
:101AA000623F156D6366AB2B6151C1E960D4D7A667
:101AB00065E3BD6464BA0322668D69E06720CBD715
:101AC0004817A115494E1F534B7975914AFC63DEA7
:101AD0004FCB091C4E92B75A4CA5DD984D989AC42D
:101AE00046AFF00647F64E4045C12482444432CD0D
:101AF0004173580F402AE649421D8C8B435068F1D0
:101B000054670233553EBC755709D6B7568CC0F89A
:101B100053BBAA3A52E2147C50D57EBE51E839E25A
:101B20005ADF53205B86ED6659B187A4583491EB98
:101B30005D03FB295C5A456F5E6D2FAD5F801B35E1
:101B4000E1B771F7E0EECFB1E2D9A573E35CB33C46
:101B5000E66BD9FEE73267B8E5050D7AE4384A2628
:101B6000EF0F20E4EE569EA2EC61F460EDE4E22F6C
:101B7000E8D388EDE98A36ABEBBD5C69EAF0B813CF
:101B8000FDC7D2D1FC9E6C97FEA90655FF2C101AFA
:101B9000FA1B7AD8FB42C49EF975AE5CF848E9009E
:101BA000F37F83C2F2263D84F0115746F194410938
:101BB000F4A32BCBF5FA958DF7CDFF4FF6605D784A
:101BC000D95737BAD80E89FCDA39E33EDBBCF57158
:101BD000DE8B9FB3DFD221F5DDE54B37DCD80C6B14
:101BE000D7EF66A9D6B6D8EFD481B22DD504A462BA
:101BF000D033CEA0D16A70E6D35D1A24D210FE5E37
:101C0000C527949CC47E2ADAC6494018C7CC5657CB
:101C1000C2FB3C95C3A282D3C195E811C0A8AF4DC9
:101C2000CB9FC58FCAC67BC9C8F1110BC9740744C5
:101C3000CC436D86CD1AD3C0CF2DB902CE4096AF1E
:101C40009177FC6D902E422B921928E9939C3EA629
:101C500096AB546497F2EA2295C580E094F8C7BC2D
:101C60009FCFAD7E9E9613389CA179FA9D246FB5C7
:101C700098130577994ABB319B7DD1F39A3035890A
:101C80008D075F4B8C5EE10D8E698BCF8FEC9D8055
:101C90008ADBF7428B82490489B523C68888649A17
:101CA00083BF0E5882E6B01E80D1DADC8154CC931B
:101CB0008463A651853A1817870D72D586A0D0E2A5
:101CC000A997BA20A8CE0466AAF96EA4AB7C78EBDB
:101CD000AE4B1229AF12AC6FAD25C6ADAC1881F179
:101CE000A72FEB33A6765575A4413FB7A5C429F8B5
:101CF000A0F3433AA1AAFD7CA39D97BEA2D073C4D2
:101D0000B5E71906B4BEA740B689CD82B70CDBCDC6
:101D1000B23BB10FB3620F49B155658BB06822D7A2
:101D2000BB5F4815BA06F653B8319C91B9B48ADE48
:101D3000BC83E01CBDDA5E5ABFED3498BE000000E3
:101D4000006567BCB88BC809AAEEAFB51257976299
:101D50008F32F0DE37DC5F6B25B938D79DEF28B4C2
:101D6000C58A4F087D64E0BD6F018701D7B8BFD633
:101D70004ADDD86AF23377DFE0561063589F57196F
:101D800050FA30A5E8149F10FA71F8AC42C8C07B35
:101D9000DFADA7C76743087275266FCECD707FADE4
:101DA000951518112DFBB7A43F9ED0188727E8CFB3
:101DB0001A428F73A2AC20C6B0C9477A083EAF3230
:101DC000A05BC88E18B5673B0AD00087B26938504F
:101DD0002F0C5FEC97E2F059858797E53DD1878618
:101DE00065B4E03ADD5A4F8FCF3F2833778610E451
:101DF000EAE37758520DD8ED4068BF51F8A1F82BAF
:101E0000F0C49F97482A30225A4F579EE2F66F49F6
:101E10007F9308F5C77DA740D518C0FC6D4ED09FB5
:101E2000352BB7238DC518969FA07F2A271947FD0C
:101E3000BA7C204102928FF410F7E848A83D58146C
:101E40009B583FA823B6901D31D3F7A1896ACF765E
:101E5000140FA8CAACE1077FBE8460C306D270A08D
:101E60005EB7171CE659B8A9F43CDF154C85E7C2EC
:101E7000D1E0807E690E2FCB7B6B4877C3A20F0D1C
:101E8000CBC768B17329C704614CA0B8D9F5986F66
:101E90004490FFD3FC7E5066EE1B37DA564D27B9CF
:101EA0000E284005B6C6EFB0A4A3880C1C1AB0DB00
:101EB000817FD767399178D22BF41F6E9303F72671
:101EC0003B66909A83883F2F91ED58932954604444
:101ED000B43107F80CDFA84D1EBACFF1A6ECDF92A3
:101EE000FE89B82E4667179B54027027ECBB48F05A
:101EF00071DE2F4CC93080F9DB55E745639CA03F6C
:101F00006BF9C783D3176836C1720F8A79CB375DF7
:101F1000E4AE50E15C40FF544E2598E8F673888BA0
:101F2000AE16EF3716F84082049D273EBC241FE909
:101F30002141785599AFD7E08BCAB05C333BB65995
:101F4000ED5ED1E555B07E5047D519ECFF6C213BD5
:101F500062094687DAE7E932C8828E8E70D49EED38
:101F600028B1F951905F56E4823A31583A83098F8B
:101F7000A7E66E331F08C1860D6DA63AB5A4E140F1
:101F8000BDC186FC052F2949174A4EF5AFF37622CD
:101F90003296119E8A78BE2B981DD997204BC9F492
:101FA000782EAE48C0C001FDD2A566416A1C5E967F
:101FB000F779392A4F97969F5DF2F123E505196B62
:101FC0004D607ED7F58ED162E7EBB6DE5F528E09AB
:101FD000C237E9B57AD9460068BC21BCD0EA31DF06
:101FE000888F56633061F9D622049E6A9ABDA6BDD9
:101FF00007D8C101BF366EB4AD530908159A4E72A9
:102000001DFF29CEA511867BB774E1C70FCDD9106E
:1020100092A8BEAC2A461119382376A5807566C6EB
:10202000D810017A60FEAECF729BC973CA22F1A4A8
:1020300057479618EFA939ADFDCC5E114506EE4D18
:10204000766389F1CE8D2644DCE841F86451792F1E
:10205000F9341E9341DAB12653BFD69AEBE9C6F99B
:10206000B38CA1450B620EF01907694CA1BE519BC0
:102070003CDB3627843599929650FE2E2E99B95422
:1020800026FCDEE89E12715D8C7716E134CE2E368A
:10209000A9AB498A1145E63F03208183BB7691E0D5
:1020A000E313F65C5BFD59E949983E55F121068240
:1020B0006C44613ED4AACE8BC6CFA9377E38417F0F
:1020C000D65D26C36EB389767CD6EECAC46FD61DA4
:1020D000590AB1A1E1E41E14F38179A84BD769CB69
:1020E00013B20E77AB5CA1C2B939C67E0180FEA9DE
:1020F0009CE59915240B36A0366E511C8EA71666EA
:1021000086C271DA3E2CDE6F2C49B9D394F081047B
:102110000995E6B8B17B490DA31E2EB11B483ED2EE
:10212000432D596EFBC3F6DBE9A69167511FA9B099
:10213000CC7ACE0C749461B966F10605DE000021FC
:1021400000240027002A002D003000330001010088
:1021500000040107010A0100002200250028002BCD
:10216000002E003100340002010000050108010BBF
:10217000010045FC11241FBECFEFD1E2DEBFCDBF71
:1021800000E00CBF12E0A0E0B2E0E4E5FDE502E013
:102190000BBF02C007900D92AA3AB107D9F720E20F
:1021A000AAEAB2E001C01D92AE35B207E1F710E134
:1021B000CAEBD0E100E006C021970109802FFE01A3
:1021C0000F94342EC93BD10780E00807A9F70E947D
:1021D000D3FE0D94A82E0C94000010926A0A10925F
:1021E000690A08950C94FF970C94657A80919C1C61
:1021F00081110EC010926A0A1092690A81E08093E0
:102200009C1C83E08093CF0B81E08093B202089501
:102210008091291B87FF05C010926A0A1092690AF3
:10222000F0CF80910A1D90910B1DA0910C1DB091D3
:102230000D1D84369105A105B10530F78091690A1D
:1022400090916A0A8D9701F310926A0A1092690AB6
:10225000DBCF0C94FF970C94657A08950C94FF974C
:102260000C94657A8091CF1C90912F1B9C719C30AF
:1022700091F58A30CCF088E090E09093C002809392
:10228000BF0282E090E09093BE028093BD0284E0A2
:1022900090E09093BC028093BB0286E090E0909324
:1022A000BA028093B90208951816ECF781E090E025
:1022B0009093C0028093BF0283E090E09093BE02AF
:1022C0008093BD0285E090E09093BC028093BB02B6
:1022D00087E090E0E4CF8A308CF024E030E0309367
:1022E000C0022093BF0282E090E09093BE028093F0
:1022F000BD023093BC022093BB02D1CF18169CF6CE
:1023000021E030E03093C0022093BF0283E090E0F0
:10231000ECCF0C94657A0C94657A8091D10A9091F7
:10232000D20A2091231B3091241BAC014450510947
:10233000241735070CF04BC0821B930B97FD0196B9
:102340009595879504979093C0028093BF028091E2
:10235000800A9091810AAC01445051092417350735
:10236000CCF5821B930B97FD019695958795049765
:102370009093BE028093BD0280917C0A90917D0A69
:10238000AC0144505109241735073CF5821B930BCF
:1023900097FD01969595879504979093BC0280933D
:1023A000BB0280917E0A90917F0AAC014450510992
:1023B00024173507ACF4821B930B97FD0196959576
:1023C000879504979093BA028093B9020895805339
:1023D0009D4FB2CF80539D4FC4CF80539D4FD6CFDA
:1023E00080539D4FE8CF0C9442999091CF1C8091DF
:1023F0002F1B8C718C3081F59A30CCF08CE090E002
:102400009093C0028093BF0283E090E09093BE025D
:102410008093BD0286E090E09093BC028093BB0263
:1024200089E090E09093BA028093B902089581E028
:1024300090E09093C0028093BF0284E090E090937C
:10244000BE028093BD0287E090E09093BC0280932F
:10245000BB028AE090E0E6CF9A306CF086E090E034
:102460009093C0028093BF0283E090E09093BE02FD
:102470008093BD02089581E090E09093C002809324
:10248000BF0284E090E0F2CF0C94657A0C94657AF8
:1024900080915A0B807F803421F58091CF1C8A3047
:1024A0006CF484E290E09093C0028093BF0280E1DC
:1024B00090E09093BE028093BD02089584311CF495
:1024C00083E290E0F0CF8E311CF482E290E0EBCF1B
:1024D0008FE190E09093C0028093BF028DE090E086
:1024E000E8CF803609F041C08091CF1C24E230E073
:1024F0008A3024F08431ACF423E230E03093C0021F
:102500002093BF0229E030E03093BE022093BD0249
:102510008A3004F587E190E09093BC028093BB027F
:10252000089522E230E08E3134F02FE130E088323D
:1025300014F421E230E03093C0022093BF0226E081
:1025400030E03093BE022093BD028E3134F485E139
:1025500090E0E2CF86E190E0DFCF88321CF484E1A6
:1025600090E0DACF83E190E0D7CF08958091CF1C3F
:102570008930CCF481E090E09093C0028093BF0258
:1025800085E090E09093BE028093BD0289E090E0E8
:102590009093BC028093BB028DE090E09093BA02CE
:1025A0008093B902089580E190E09093C0028093F7
:1025B000BF0284E090E09093BE028093BD0288E069
:1025C00090E09093BC028093BB028CE090E0E6CF59
:1025D0000C94D89ACF93DF9380912F1B8C718C3001
:1025E00021F48091281B24E281FD20E0C091231B6F
:1025F000D091241B6091A60C7091A70C8091D10AF8
:102600009091D20A8C1B9D0B0F94CB2B61507109BA
:1026100030E0F901B496E617F7070CF065C06E1BC1
:102620007F0B8091010490910204280F391F261717
:10263000370708F4B9017093C0026093BF0260913C
:10264000A60C7091A70C8091800A9091810A8C1B36
:102650009D0B0F94CB2B61507109E617F7070CF017
:102660004AC06E1B7F0B2617370708F4B901709319
:10267000BE026093BD026091A60C7091A70C809180
:102680007C0A90917D0A8C1B9D0B0F94CB2B615083
:102690007109E617F707B4F56E1B7F0B261737078E
:1026A00008F4B9017093BC026093BB026091A60C60
:1026B0007091A70C80917E0A90917F0A8C1B9D0BD4
:1026C0000F94CB2B61507109E617F7070CF56E1BC1
:1026D0007F0B2617370708F4B9017093BA0260938D
:1026E000B902DF91CF910895161617060CF499CF11
:1026F0006E0F7F1F96CF161617060CF4B4CF6E0F11
:102700007F1FB1CF161617064CF26E0F7F1FC6CF74
:1027100016161706F4F26E0F7F1FDBCF2091321BC7
:1027200080912F1B8C718C3021F48091281B322FCB
:1027300081FD30E0E091231BF091241B6091A60CF9
:102740007091A70C8091D10A9091D20A8E1B9F0B99
:102750000F94CB2B61507109230F3327331F1616AB
:1027600017060CF49FC0620F731FCB014197823094
:10277000910508F49EC042978230910508F49CC0F0
:102780004297029708F49BC06734710514F066E421
:1027900070E07093C0026093BF026091A60C7091CC
:1027A000A70C8091800A9091810A8E1B9F0B0F9439
:1027B000CB2B61507109161617060CF483C0620FFB
:1027C000731FCB0141978230910508F482C0429774
:1027D0008230910508F480C04297029708F47FC0C8
:1027E0006734710514F066E470E07093BE02609384
:1027F000BD026091A60C7091A70C80917C0A90910B
:102800007D0A8E1B9F0B0F94CB2B615071091616FE
:1028100017060CF467C0620F731FCB01419782301B
:10282000910508F466C042978230910508F464C0AF
:102830004297029708F463C06734710514F066E4A8
:1028400070E07093BC026093BB026091A60C709123
:10285000A70C80917E0A90917F0A8E1B9F0B0F948C
:10286000CB2B61507109161617060CF44BC0620F82
:10287000731FCB0141978230910508F44AC04297FB
:102880008230910508F448C04297029708F447C087
:102890006734710514F066E470E07093BA026093D7
:1028A000B9020895261737070CF05FCF621B730B30
:1028B0005CCF60E170E06DCF62E270E06ACF64E30C
:1028C00070E067CF261737070CF07BCF621B730BC6
:1028D00078CF60E170E089CF62E270E086CF64E398
:1028E00070E083CF261737070CF097CF621B730B6E
:1028F00094CF60E170E0A5CF62E270E0A2CF64E324
:1029000070E09FCF261737070CF0B3CF621B730B15
:10291000B0CF60E170E0C1CF62E270E0BECF64E3AF
:1029200070E0BBCF0C94657A80910A1E87709EEF91
:10293000980F923010F0863029F480916F008860F3
:1029400080936F00089550910A1E252F277009F477
:10295000E8C031E0243030F0263009F030E091E07A
:10296000263009F490E02091EB04281709F4DBC02D
:102970002091EA04281305C020915B0B203208F057
:10298000D2C02091E904281305C020915B0B2033AD
:1029900008F0C9C02091E804281305C020915B0B02
:1029A000203408F0C0C02091E704281305C020910E
:1029B0005B0B203508F0B7C02091D404281305C064
:1029C00020915B0B203608F0AEC02091D304281371
:1029D00005C020915B0B203708F0A5C02091D204E0
:1029E0002813A3C040915B0B242F221F2227221FF4
:1029F0004091E604481709F49AC04091E504481351
:102A000005C040910A02423008F091C04091E404B0
:102A1000481305C040910A02433008F088C0409135
:102A2000E304481305C040910A02443008F07FC017
:102A30004091E204481305C040910A02453008F075
:102A400076C04091D104481305C040910A02463037
:102A500008F06DC04091D004481305C040910A02AF
:102A6000473008F064C04091CF04481305C040913E
:102A70000A02483008F05BC04091D31E481709F4A1
:102A80005AC04091DC04481306C040917C0B487149
:102A9000483009F450C04091D904481308C040910F
:102AA000961D45FD48C04091711C40FD44C04091B9
:102AB000D804481304C04091891C46FD3CC0409195
:102AC000DA04481304C04091961D44FD34C040917F
:102AD000E004481302C031112CC04091DF044813B8
:102AE00004C0332311F056FD24C03091D7043813AD
:102AF00002C0911111C03091DD04381302C0911150
:102B00000BC03091DE04381302C0911105C09091C2
:102B1000E104981781F0922F811101C091E0892F73
:102B2000089530E01FCF21E063CF20E061CF21E0A6
:102B3000A3CF932FF1CF91E0EFCFCF939091751E5C
:102B40009817F1F0909159089817D1F090912B0BAC
:102B50009817B1F09091641E981791F090913708F2
:102B6000981771F090915B08981751F09091DB04E1
:102B7000C0915C0BC695C170981719F0C0E001C0F8
:102B8000C1E00E94A3148111C82F8C2FCF9108950A
:102B9000E091FD03F091FE0380819091FC03892375
:102BA00071F080919C1C811111C08DE090E0909398
:102BB0006A0A8093690A81E080939C1C0895809141
:102BC0009C1C811115C085E090E0F1CF8091690ACD
:102BD00090916A0A0D9759F08091471D8F5F8093FD
:102BE000471D8DE090E090936A0A8093690A0895EA
:102BF0008091690A90916A0A0597C9F38091471DEF
:102C00008F5F8093471D85E090E0EDCF0895CF92D0
:102C1000DF92EF92FF9280919C1C882309F495C06B
:102C20008091AC0C9091AD0CA091AE0CB091AF0C1A
:102C3000892B8A2B8B2B09F488C08091A80C90914A
:102C4000A90CA091AA0CB091AB0C892B8A2B8B2BD1
:102C500009F47BC080910A1D90910B1DA0910C1D61
:102C6000B0910D1D0297A105B10508F04CC0F89474
:102C70002091AC0C3091AD0C4091AE0C5091AF0C4A
:102C80008091A80C9091A90CA091AA0CB091AB0CCA
:102C9000281B390B4A0B5B0BA4EBB0E00F945A2CAA
:102CA0006093B10C7093B20C8093B30C9093B40CFE
:102CB0007894C090B10CD090B20CE090B30CF0902E
:102CC000B40C60E077E883E993E0A70196010F94E4
:102CD000122CC901803526E4920720F080919D1CBA
:102CE00090919E1CCC0CDD1CEE1CFF1CC0920D02B2
:102CF000D0920E02E0920F02F0921002FF90EF903D
:102D0000DF90CF900895F89480910F049091100473
:102D1000A0911104B091120440910B0450910C0445
:102D200060910D0470910E04841B950BA60BB70BDC
:102D3000B695A795979587958093B10C9093B20C13
:102D4000A093B30CB093B40CB3CF90E080E0D6CF97
:102D50008091B71E8A3081F08091A71EE091A51E58
:102D6000F091A61E90818095892380838091E91C33
:102D70008B7F8093E91C08958091FC1EE091FA1EE0
:102D8000F091FB1E90818095892380838091F91EAC
:102D9000877F8093F91E8091F91E90E090630E94D6
:102DA000BE9F8093F81E8091FC1EE091FA1EF09168
:102DB000FB1E9081892B808308958091B71E8A30F5
:102DC00079F09091A71EE091A51EF091A61E80813A
:102DD000892B80838091E91C84608093E91C08958D
:102DE0008091FC1EE091FA1EF091FB1E908180956F
:102DF000892380838091F91E88608093F91E8091D9
:102E0000F91E90E090630E94BE9F8093F81E80910F
:102E1000FC1EE091FA1EF091FB1E9081892B8083AD
:102E200008958091B71E8A3081F08091A41EE091B0
:102E3000A21EF091A31E90818095892380838091AA
:102E4000E91C8D7F8093E91C08958091FC1EE09120
:102E5000FA1EF091FB1E90818095892380838091DA
:102E6000F91E8B7F8093F91E8091F91E90E090638C
:102E70000E94BE9F8093F81E8091FC1EE091FA1E76
:102E8000F091FB1E9081892B808308958091B71E5D
:102E90008A3079F09091A41EE091A21EF091A31EB9
:102EA0008081892B80838091E91C82608093E91C5A
:102EB00008958091FC1EE091FA1EF091FB1E908116
:102EC0008095892380838091F91E84608093F91E08
:102ED0008091F91E90E090630E94BE9F8093F81E3F
:102EE0008091FC1EE091FA1EF091FB1E9081892BCF
:102EF000808308958091B71E8A3081F08091A11E51
:102F0000E0919F1EF091A01E90818095892380837F
:102F10008091E91C8E7F8093E91C08958091FC1EAE
:102F2000E091FA1EF091FB1E9081809589238083A9
:102F30008091F91E8D7F8093F91E8091F91E90E09B
:102F400090630E94BE9F8093F81E8091FC1EE091CA
:102F5000FA1EF091FB1E9081892B80830895809149
:102F6000B71E8A3079F09091A11EE0919F1EF091DA
:102F7000A01E8081892B80838091E91C81608093D1
:102F8000E91C08958091FC1EE091FA1EF091FB1E51
:102F900090818095892380838091F91E826080933F
:102FA000F91E8091F91E90E090630E94BE9F80936D
:102FB000F81E8091FC1EE091FA1EF091FB1E90819C
:102FC000892B808308958091C5029091C602A091BB
:102FD000C702B091C8028093C1029093C202A0932D
:102FE000C302B093C4020E948FD86093CD02709345
:102FF000CE028093CF029093D0028091CD02909127
:10300000CE02A091CF02B091D0024091AC0C509171
:10301000AD0C6091AE0C7091AF0C841B950BA60BA0
:10302000B70B8093C5029093C602A093C702B093DA
:10303000C8028091690A90916A0A019690936A0A7F
:103040008093690A81E0809343048091690A90919A
:103050006A0A0D9749F480919C1C882329F01092EC
:103060006A0A1092690A08958091690A90916A0A21
:10307000019721F480919C1C811131C08091C10283
:103080009091C202A091C302B091C402B695A795D7
:10309000979587958093AA029093AB02A093AC0278
:1030A000B093AD024091C5025091C6026091C70233
:1030B0007091C8028091AA029091AB02A091AC02DB
:1030C000B091AD02481759076A077B07D8F51092EF
:1030D0006A0A1092690A81E080939C1C089580918D
:1030E0000F0490911004A0911104B09112048093E8
:1030F0000B0490930C04A0930D04B0930E048091E4
:10310000CD029091CE02A091CF02B091D0028093D7
:103110000F0490931004A0931104B09312048091B3
:103120000A1D90910B1DA0910C1DB0910D1D0196D3
:10313000A11DB11D80930A1D90930B1DA0930C1D22
:10314000B0930D1D8091AC0C9091AD0CA091AE0C84
:10315000B091AF0C8093A80C9093A90CA093AA0CEB
:10316000B093AB0C8091CD029091CE02A091CF0292
:10317000B091D0028093AC0C9093AD0CA093AE0CA8
:10318000B093AF0C08950E948FD86093B3027093F0
:10319000B4028093B5029093B6028091B3029091ED
:1031A000B402A091B502B091B6024091D00B5091FB
:1031B000D10B6091D20B7091D30B841B950BA60B96
:1031C000B70B8093C9029093CA02A093CB02B0932D
:1031D000CC028091EC1C81FD04C080919C1C81116B
:1031E0000CC08CED95E0A0E0B0E080934404909397
:1031F0004504A0934604B09347044091C9025091FE
:10320000CA026091CB027091CC0280910704909128
:103210000804A0910904B0910A04481759076A07E5
:103220007B0708F460C08091B3029091B402A09132
:10323000B502B091B6028093D00B9093D10BA093BE
:10324000D20BB093D30B8091C9029091CA02A09186
:10325000CB02B091CC028093C1029093C202A093A2
:10326000C302B093C4028091CD0B9091CE0B019616
:103270009093CE0B8093CD0B8091690A90916A0A4E
:10328000019789F54091B3025091B4026091B50263
:103290007091B6028091AC0C9091AD0CA091AE0CE7
:1032A000B091AF0C84179507A607B707E0F480919B
:1032B000B3029091B402A091B502B091B6024091D0
:1032C000AC0C5091AD0C6091AE0C7091AF0C841BA6
:1032D000950BA60BB70B8093EE1E9093EF1EA09359
:1032E000F01EB093F11E08950E948FD86093CD0216
:1032F0007093CE028093CF029093D0028091CD0242
:103300009091CE02A091CF02B091D0024091AC0C2E
:103310005091AD0C6091AE0C7091AF0C841B950B6D
:10332000A60BB70B8093C5029093C602A093C70269
:10333000B093C8024091C5025091C6026091C70285
:103340007091C8028091440490914504A091460474
:10335000B0914704481759076A077B0708F4B9C0BA
:1033600081E0809343048091690A90916A0A0196F2
:1033700090936A0A8093690A8091690A90916A0A17
:10338000019731F08091690A90916A0A0597E1F5F9
:1033900081E090E090936A0A8093690A80910F041B
:1033A00090911004A0911104B091120480930B0429
:1033B00090930C04A0930D04B0930E048091CD0261
:1033C0009091CE02A091CF02B091D00280930F04D1
:1033D00090931004A0931104B093120481E08093A1
:1033E0009C1C80910A1D90910B1DA0910C1DB09109
:1033F0000D1D0196A11DB11D80930A1D90930B1DFB
:10340000A0930C1DB0930D1D80919C1C882309F482
:1034100060C08091EC1C81FF0DC080912F1B87FF45
:1034200009C08091690A90916A0A019709F052C017
:103430000E94D2D48091690A90916A0A019709F496
:1034400053C08091690A90916A0A039709F44CC0AD
:103450008CE690E09093A70C8093A60C2091C50277
:103460003091C6024091C7025091C802A3E0B0E07B
:103470000F945A2C23E096958795779567952A9512
:10348000D1F760934404709345048093460490936D
:1034900047048091AC0C9091AD0CA091AE0CB09112
:1034A000AF0C8093A80C9093A90CA093AA0CB09396
:1034B000AB0C8091CD029091CE02A091CF02B09141
:1034C000D0028093AC0C9093AD0CA093AE0CB09353
:1034D000AF0C08958091690A90916A0A039709F0E8
:1034E000A9CF0E9428D4A6CF88E490E09093A70C9F
:1034F0008093A60C8091C5029091C602A091C7024C
:10350000B091C8028093440490934504A09346046C
:10351000B0934704BECF0E948FD86093B3027093DC
:10352000B4028093B5029093B6028091C902909143
:10353000CA02A091CB02B091CC028093C1029093B9
:10354000C202A093C302B093C4028091B3029091CF
:10355000B402A091B502B091B6024091D00B509147
:10356000D10B6091D20B7091D30B841B950BA60BE2
:10357000B70B8093C9029093CA02A093CB02B09379
:10358000CC028091B3029091B402A091B502B091A7
:10359000B6028093D00B9093D10BA093D20BB09333
:1035A000D30B80919C1C811117C08091CD0B909101
:1035B000CE0B029791F481E090E090936A0A809399
:1035C000690A80939C1C8091CD0B9091CE0B019643
:1035D0009093CE0B8093CD0B08958CED95E0A0E0F9
:1035E000B0E08093440490934504A0934604B093C4
:1035F00047048091C1029091C202A091C302B09190
:10360000C402B695A795979587958093AA02909343
:10361000AB02A093AC02B093AD024091C9025091AD
:10362000CA026091CB027091CC028091AA02909163
:10363000AB02A091AC02B091AD02481759076A07DE
:103640007B0708F682E090E09093CE0B8093CD0B41
:10365000BACF0E948FD86093B3027093B402809364
:10366000B5029093B6028091B3029091B402A091FA
:10367000B502B091B6024091D00B5091D10B609140
:10368000D20B7091D30B841B950BA60BB70B8093B9
:10369000C9029093CA02A093CB02B093CC0280914E
:1036A000B3029091B402A091B502B091B60280939A
:1036B000D00B9093D10BA093D20BB093D30B20914E
:1036C000291B322F31708091CD0B9091CE0B892B1D
:1036D00069F1E091FA03F091FB0380819091F90385
:1036E000892391E009F490E0931701F18091690A30
:1036F00090916A0A4091CD0B5091CE0B841B909112
:103700009C1C91114BC090915A0B907F903499F56D
:1037100091EF980F933098F480E190E090936A0ACB
:103720008093690A81E080939C1C08958091690AC6
:1037300090916A0A9093CE0B8093CD0B089595EFEC
:10374000980F933018F486E690E0E8CF99EF980F41
:10375000933018F48CEB90E0E1CF8350833018F471
:1037600082E191E0DBCF10929C1C8091471D8F5F1E
:103770008093471D0895903631F483508330F0F4E0
:103780008CE790E0CBCF903831F486508330B0F4A2
:1037900088E390E0C3CF10929C1C089527FF0EC0D1
:1037A00090915A0B907F903449F48F50833030F4CD
:1037B00080E190E090936A0A8093690A08958F925D
:1037C0009F92AF92BF92CF92DF92EF92FF920F93B0
:1037D0001F93CF93DF93F894C090AC0CD090AD0CB6
:1037E000E090AE0CF090AF0C8090A80C9090A90CDB
:1037F000A090AA0CB090AB0CC091690AD0916A0A53
:103800000E948FD86093D5027093D6028093D7021E
:103810009093D8027894CE010197880F991F209138
:10382000231B3091241B820F931FA6010D2C000C2B
:10383000660B770B0091D5021091D6022091D7022A
:103840003091D802041B150B260B370BA601481923
:10385000590957FF02C04F5F5F4F55954795052E99
:10386000000C660B770B401751076207730708F4CB
:103870000196803D22E0920714F0805D92402091F5
:103880000202309103022817390714F4821B930BAC
:1038900097FF02C088599E4FDF91CF911F910F91E2
:1038A000FF90EF90DF90CF90BF90AF909F908F9060
:1038B00008958091CF0B882351F08091CF0B8330F6
:1038C00031F08091CF0B843008F07FC008950E94C2
:1038D0008FD86093B3027093B4028093B502909333
:1038E000B6028091B3029091B402A091B502B0915A
:1038F000B6024091D00B5091D10B6091D20B7091D8
:10390000D30B841B950BA60BB70B8093C902909326
:10391000CA02A093CB02B093CC024091C90250914D
:10392000CA026091CB027091CC0280910704909101
:103930000804A0910904B0910A0484179507A6070A
:10394000B70708F04AC08091B3029091B402A091E9
:10395000B502B091B6028093D00B9093D10BA09397
:10396000D20BB093D30B8091CD0B9091CE0B0196DF
:103970009093CE0B8093CD0B1092CF0B8091CD0BFB
:103980009091CE0B0297C0F08091C9029091CA022B
:10399000A091CB02B091CC0222E0B695A795979565
:1039A00087952A95D1F78093070490930804A093F4
:1039B0000904B0930A0408951092070410920804B1
:1039C0001092090410920A0408951092CF0B81E01E
:1039D00090E09093CE0B8093CD0B0895CF92DF9221
:1039E000EF92FF920E948FD86093B3027093B4025B
:1039F0008093B5029093B6028091B3029091B40285
:103A0000A091B502B091B6024091D00B5091D10B6C
:103A10006091D20B7091D30B841B950BA60BB70B47
:103A20008093C9029093CA02A093CB02B093CC02B8
:103A30008091D00B9091D10BA091D20BB091D30B70
:103A4000892B8A2B8B2BC1F41092C9021092CA02C7
:103A50001092CB021092CC028091B3029091B402EA
:103A6000A091B502B091B6028093D00B9093D10B88
:103A7000A093D20BB093D30B4091C9025091CA02CC
:103A80006091CB027091CC02809107049091080460
:103A9000A0910904B0910A04481759076A077B07E7
:103AA00008F4DEC02091D00B3091D10B4091D20BA5
:103AB0005091D30B8091030490910404A0910504CC
:103AC000B0910604281B390B4A0B5B0BA3E0B0E056
:103AD0000F945A2C96958795779567956093AE02CB
:103AE0007093AF028093B0029093B1028091D00B9B
:103AF0009091D10BA091D20BB091D30B8093030482
:103B000090930404A0930504B09306044091C90265
:103B10005091CA026091CB027091CC028091AE02AA
:103B20009091AF02A091B002B091B102481759072D
:103B30006A077B0708F054C08091CD0B9091CE0BA3
:103B4000059709F44DC08091C9029091CA02A091D5
:103B5000CB02B091CC0222E0B695A79597958795B8
:103B60002A95D1F78093070490930804A093090441
:103B7000B0930A048091CD0B9091CE0B0196909357
:103B8000CE0B8093CD0B8091B3029091B402A091A3
:103B9000B502B091B6028093D00B9093D10BA09355
:103BA000D20BB093D30B8091961D85FF59C08091A5
:103BB000B202882309F454C08091CD0B9091CE0BB2
:103BC000019709F04DC0E091E50AF091E60A1995D8
:103BD000AC01493681E05807A4F048565140F9CF6E
:103BE00081E090E09093CE0B8093CD0B8093B20256
:103BF00010920704109208041092090410920A040B
:103C0000C2CF80919C1D8370823051F5E0919F1B43
:103C10009A01220F331FF0E0A0E0B1E0AE1BBF0B12
:103C20000F943C2E6B017C019F01DA010F94442E0E
:103C3000C60ED71EE81EF91ECD2CDE2CEF2CFF245D
:103C4000E7FCFA9488E691E08C199D0920915E1CAE
:103C500030915F1C821B930B90934D1D80934C1DE4
:103C6000FF90EF90DF90CF900895CF92DF92EF9288
:103C7000FF92CF93DF930E948FD86093B30270932B
:103C8000B4028093B5029093B6028091B3029091F2
:103C9000B402A091B502B091B6024091D00B509100
:103CA000D10B6091D20B7091D30B841B950BA60B9B
:103CB000B70B8093C9029093CA02A093CB02B09332
:103CC000CC024091C9025091CA026091CB0270911E
:103CD000CC028091070490910804A0910904B0914E
:103CE0000A04481759076A077B0708F447C0809100
:103CF000B3029091B402A091B502B091B602809344
:103D0000D00B9093D10BA093D20BB093D30B809197
:103D10009C1C81115AC00E948FD86093AC0C709388
:103D2000AD0C8093AE0C9093AF0C0E948FD86B01BA
:103D30007C01C091321B2C2F30E050E040E060E865
:103D40007DE88BE590E00F94DF2BC21AD30AE40ADA
:103D5000F50AC092A80CD092A90CE092AA0CF0929D
:103D6000AB0CD0E0D0936A0AC093690A8091471DDA
:103D70008F5F8093471D81E080939C1C80910F048E
:103D800090911004A0911104B091120440910B0481
:103D900050910C0460910D0470910E04841B950BDE
:103DA000A60BB70BB695A7959795879580930704B3
:103DB00090930804A0930904B0930A04DF91CF9173
:103DC000FF90EF90DF90CF90089586E090E0909381
:103DD0006A0A8093690AD2CFCF92DF92EF92FF9264
:103DE0000F931F9380912F1B8C718C3029F0809141
:103DF0005C0B8073803319F50E948FD86093B302F7
:103E00007093B4028093B5029093B602E091FA03E6
:103E1000F091FB0380819091F9038923B9F080919F
:103E2000B3029091B402A091B502B091B602809312
:103E3000F1049093F204A093F304B093F4041F915F
:103E40000F91FF90EF90DF90CF9008958091B30293
:103E50009091B402A091B502B091B6024091D00BFE
:103E60005091D10B6091D20B7091D30B841B950BA9
:103E7000A60BB70B8093C9029093CA02A093CB0202
:103E8000B093CC024091C9025091CA026091CB021A
:103E90007091CC028091070490910804A0910904CC
:103EA000B0910A0484179507A607B70740F68091DA
:103EB000D00B9091D10BA091D20BB091D30B892B49
:103EC0008A2B8B2B09F48FC08091030490910404FA
:103ED000A0910504B0910604892B8A2B8B2B09F441
:103EE00082C08091CD0B9091CE0B892B49F08091AF
:103EF000CD0B9091CE0B01969093CE0B8093CD0B72
:103F00002091D00B3091D10B4091D20B5091D30B1B
:103F10008091030490910404A0910504B0910604DB
:103F2000C090C902D090CA02E090CB02F090CC02BF
:103F3000281B390B4A0B5B0BA3E0B0E00F945A2C03
:103F40009695879577956795C616D706E806F9067C
:103F500008F486C04091F1045091F2046091F3049A
:103F60007091F4040091D00B1091D10B2091D20BE1
:103F70003091D30B8091B3029091B402A091B5021D
:103F8000B091B602C090F104D090F204E090F30436
:103F9000F090F404401B510B620B730B8C199D09BC
:103FA000AE09BF09481759076A077B0708F043C0E5
:103FB0008091CD0B9091CE0B892BB1F18091CD0BDF
:103FC0009091CE0B089781F18091CD0B9091CE0B03
:103FD000892B09F040C01092070410920804109237
:103FE000090410920A048091D00B9091D10BA091FA
:103FF000D20BB091D30B8093030490930404A0934D
:104000000504B09306048091B3029091B402A0918C
:10401000B502B091B6028093D00B9093D10BA093D0
:10402000D20BB093D30B0BCF81E090E09093CE0BEB
:104030008093CD0BD0CF8091CD0B9091CE0B892B5F
:1040400039F08091CD0B9091CE0B059709F0BCCF44
:1040500085E090E0EBCF1092CE0B1092CD0BBBCF52
:104060008091CD0B9091CE0B892B09F4BCCF809120
:10407000C9029091CA02A091CB02B091CC0222E079
:10408000B695A795979587952A95D1F780930704BC
:1040900090930804A0930904B0930A04A4CFCF928C
:1040A000DF92EF92FF9280912F1B8C718C3031F058
:1040B00080915C0B8073803309F0F1C00E948FD82F
:1040C0006093B3027093B4028093B5029093B602EA
:1040D0008091B3029091B402A091B502B091B60262
:1040E0004091D00B5091D10B6091D20B7091D30BBA
:1040F000841B950BA60BB70B8093C9029093CA0241
:10410000A093CB02B093CC024091C9025091CA0255
:104110006091CB027091CC028091070490910804C9
:10412000A0910904B0910A0484179507A607B70760
:1041300008F0B5C08091D00B9091D10BA091D20B1B
:10414000B091D30B892B8A2B8B2B09F498C08091CB
:10415000AC0C9091AD0CA091AE0CB091AF0C892B32
:104160008A2B8B2B09F48BC08091A80C9091A90C01
:10417000A091AA0CB091AB0C892B8A2B8B2B09F444
:104180007EC02091AC0C3091AD0C4091AE0C5091A2
:10419000AF0C8091A80C9091A90CA091AA0CB091A1
:1041A000AB0CC090C902D090CA02E090CB02F09054
:1041B000CC02281B390B4A0B5B0BA3E0B0E00F9439
:1041C0005A2CC616D706E806F90608F46DC0809189
:1041D000CD0B9091CE0B892BF1F12091F00422238D
:1041E000D1F18091CF0B90915A0B92959F708823BB
:1041F00081F0E091CF0B4091CD0B5091CE0BF0E0D0
:10420000EE0FFF1FEB5EFB4F608171816417750736
:10421000B1F01092CF0BE3E1F4E081E09817D8F011
:104220004091CD0B5091CE0B62817381641775075D
:1042300019F43081231769F08F5F3296EFCF8091A8
:10424000CF0B8F5F8093CF0B8091CF0B981718F413
:1042500081E08093CF0B8091CD0B9091CE0B80931A
:10426000F00481E090E09093CE0B8093CD0B109200
:104270000704109208041092090410920A04809115
:10428000B3029091B402A091B502B091B6028093AE
:10429000D00B9093D10BA093D20BB093D30BFF9084
:1042A000EF90DF90CF9008958091CD0B9091CE0B41
:1042B000892B29F38091CD0B9091CE0B0196909391
:1042C000CE0B8093CD0B8091C9029091CA02A09130
:1042D000CB02B091CC0222E0B695A7959795879531
:1042E0002A95D1F78093070490930804A0930904BA
:1042F000B0930A04C4CF0E948FD86093B302709326
:10430000B4028093B5029093B6028091B30290916B
:10431000B402A091B502B091B6024091D00B509179
:10432000D10B6091D20B7091D30B841B950BA60B14
:10433000B70B8093C9029093CA02A093CB02B093AB
:10434000CC024091C9025091CA026091CB02709197
:10435000CC028091070490910804A0910904B091C7
:104360000A04481759076A077B0708F4F0C08091D0
:10437000B3029091B402A091B502B091B6028093BD
:10438000D00B9093D10BA093D20BB093D30B809111
:10439000CD0B9091CE0B029709F04DC08091F004A7
:1043A000833009F048C080919C1C811176C00E9426
:1043B0008FD86093AC0C7093AD0C8093AE0C90933F
:1043C000AF0C0E948FD86056734E8641910960935E
:1043D000A80C7093A90C8093AA0C9093AB0C8091BD
:1043E000321B8150990B90936A0A8093690A81E08D
:1043F00080939C1C81E08093B2028091C5029091D1
:10440000C602A091C702B091C80242E0880F991F6E
:10441000AA1FBB1F4A95D1F7809307049093080405
:10442000A0930904B0930A0481E090E09093CE0B2E
:104430008093CD0B089580919C1C882309F456C06D
:104440008091C5029091C602A091C702B091C802A6
:104450004091C5025091C6026091C7027091C80296
:10446000B695A79597958795840F951FA61FB71F9B
:104470008093070490930804A0930904B0930A045E
:104480008091CD0B9091CE0B01969093CE0B8093A3
:10449000CD0B81E08093F00408958091321B209130
:1044A000690A30916A0A90E0AC0141505109421703
:1044B000530791F040910A1D50910B1D60910C1D06
:1044C00070910D1D433051056105710528F0209153
:1044D000471D2F5F2093471D2091291B27FF8ACF5F
:1044E000019790936A0A8093690A84CF8091690A40
:1044F00090916A0A039708F4A3CF8091CD0B909115
:10450000CE0B892B09F09CCF0E948FD86093AC0C06
:104510007093AD0C8093AE0C9093AF0C0E948FD82B
:104520006056734E864191096093A80C7093A90C54
:104530008093AA0C9093AB0C81E090E090936A0A70
:104540008093690A8093B20280939C1C08958091A5
:10455000C5029091C602A091C702B091C8024091D5
:10456000C5025091C6026091C7027091C802B6950B
:10457000A79597958795840F951FA61FB71F8093C2
:10458000070490930804A0930904B0930A0481CF10
:10459000CF92DF92EF92FF92CF93DF93F894C09186
:1045A000690AD0916A0AC090AC0CD090AD0CE09032
:1045B000AE0CF090AF0C0E948FD86093D502709330
:1045C000D6028093D7029093D80278942091690AFA
:1045D00030916A0A8091231B9091241B232B71F543
:1045E000EC01CE58DF4F6091D5027091D6028091D8
:1045F000D7029091D8026C197D098E099F0941E07C
:104600000E948E988C0F9D1F803D22E0920714F02F
:10461000805D9240209102023091030228173907F1
:1046200014F4821B930B97FF02C088599E4FDF91B1
:10463000CF91FF90EF90DF90CF900895CC0FDD1FCA
:10464000CF5EDB4F0990D881C02DC80FD91FCBCFCB
:104650008F929F92AF92BF92FF920F931F93CF932F
:10466000DF93F894C091690AD0916A0A8090AC0CEB
:104670009090AD0CA090AE0CB090AF0CF090B20248
:104680000E948FD86093D5027093D6028093D70290
:104690009093D8027894209711F4CDE2D0E08091E5
:1046A000A60C9091A70C2197C89F8001C99F100D5F
:1046B000D89F100D1124C091231BD091241B609111
:1046C000D5027091D6028091D7029091D8026819D4
:1046D00079098A099B0941E00E948E988C0F9D1FE1
:1046E000800F911FFF2011F088599E4F803D22E0DE
:1046F000920764F0805D9240DF91CF911F910F91FE
:10470000FF90BF90AF909F908F90089520910202EC
:10471000309103022817390714F4821B930B97FF7B
:10472000EBCF820F931FE8CFCF92DF92EF92FF92F1
:10473000CF93DF93F894C091690AD0916A0AC09030
:10474000AC0CD090AD0CE090AE0CF090AF0C0E9491
:104750008FD86093D5027093D6028093D70290933E
:10476000D80278948091231B9091241B2097B9F54F
:104770002091A60C3091A70C4BE0429FE001439F93
:10478000D00D1124C80FD91F6091D5027091D602A7
:104790008091D7029091D8026C197D098E099F09EA
:1047A00041E00E948E988C0F9D1F803D22E0920771
:1047B00014F0805D9240209102023091030228178C
:1047C000390714F4821B930B97FF02C088599E4F40
:1047D000DF91CF91FF90EF90DF90CF9008954091BF
:1047E000A60C5091A70C2197C49F9001C59F300D36
:1047F000D49F300D1124E901C5CFCF92DF92EF9203
:10480000FF92CF93DF93F894C091690AD0916A0A1E
:10481000C090AC0CD090AD0CE090AE0CF090AF0C12
:104820000E948FD86093D5027093D6028093D702EE
:104830009093D8027894CC0FDD1FCF5EDB4F0990A8
:10484000D881C02D8091231B9091241BC80FD91FA4
:104850006091D5027091D6028091D7029091D802D2
:104860006C197D098E099F0941E00E948E988C0F7A
:104870009D1F803D22E0920714F0805D92402091C0
:104880000202309103022817390714F4821B930B9C
:1048900097FF02C088599E4FDF91CF91FF90EF9014
:1048A000DF90CF9008950C94FD23CF92DF92EF928A
:1048B000FF92CF93DF93F894C091690AD0916A0A6E
:1048C000C090AC0CD090AD0CE090AE0CF090AF0C62
:1048D0000E948FD86093D5027093D6028093D7023E
:1048E0009093D8027894209719F4C091321BD0E0AD
:1048F0002091A60C3091A70C2197C29FC001C39FA5
:10490000900DD29F900D11246091271B70E00F94A1
:10491000CB2BC091231BD091241BC60FD71F6091B6
:10492000D5027091D6028091D7029091D8026C196D
:104930007D098E099F0941E00E948E988C0F9D1F72
:10494000803D22E0920714F0805D924020910202A7
:10495000309103022817390714F4821B930B97FF39
:1049600002C088599E4FDF91CF91FF90EF90DF906A
:10497000CF900895CF92DF92EF92FF92CF93DF9383
:10498000F894C091690AD0916A0AC090AC0CD0909A
:10499000AD0CE090AE0CF090AF0C0E948FD86093FD
:1049A000D5027093D6028093D7029093D802789460
:1049B000CC0FDD1FCF5EDB4F0990D881C02D8091D9
:1049C000231B9091241BC80FD91F6091D5027091B1
:1049D000D6028091D7029091D8026C197D098E0978
:1049E0009F0941E00E948E988C0F9D1F803D22E020
:1049F000920714F0805D92402091020230910302F0
:104A00002817390714F4821B930B97FF02C0820FFB
:104A1000931FDF91CF91FF90EF90DF90CF9008959B
:104A2000CF92DF92EF92FF92CF93DF93F894C091F1
:104A3000690AD0916A0AC090AC0CD090AD0CE0909D
:104A4000AE0CF090AF0C0E948FD86093D50270939B
:104A5000D6028093D7029093D8027894CD7F80912C
:104A6000231B9091241B219761F5EC016091D502E5
:104A70007091D6028091D7029091D8026C197D096D
:104A80008E099F0941E00E948E988C0F9D1F803DEA
:104A900022E0920714F0805D924020910202309152
:104AA00003022817390714F4821B930B97FF02C0E7
:104AB00088599E4FDF91CF91FF90EF90DF90CF907C
:104AC0000895EC01C356DF4FD1CFCF92DF92EF9222
:104AD000FF92CF93DF93F894C091CD0BD091CE0B82
:104AE000C090AC0CD090AD0CE090AE0CF090AF0C40
:104AF0000E948FD86093D5027093D6028093D7021C
:104B00009093D8027894CC0FDD1FCD5EDB4F0990D7
:104B1000D881C02D8091231B9091241BC80FD91FD1
:104B20006091D5027091D6028091D7029091D802FF
:104B30006C197D098E099F0941E00E948E988C0FA7
:104B40009D1F803D22E0920714F0805D92402091ED
:104B50000202309103022817390714F4821B930BC9
:104B600097FF02C088599E4FDF91CF91FF90EF9041
:104B7000DF90CF900895CF92DF92EF92FF92CF9384
:104B8000DF9380919C1C882309F450C0F894C09155
:104B9000690AD0916A0AC090AC0CD090AD0CE0903C
:104BA000AE0CF090AF0C0E948FD86093D50270933A
:104BB000D6028093D7029093D8027894CC0FDD1F51
:104BC000CF5EDB4F0990D881C02D8091231B90913F
:104BD000241BC80FD91F6091D5027091D602809115
:104BE000D7029091D8026C197D098E099F0941E086
:104BF0000E948E988C0F9D1F803D22E0920714F03A
:104C0000805D9240209102023091030228173907FB
:104C100014F4821B930B97FF02C088599E4FDF91BB
:104C2000CF91FF90EF90DF90CF90089590E080E0DB
:104C3000F6CFCF930E948FD86093CD027093CE02AF
:104C40008093CF029093D0028091CD029091CE02BA
:104C5000A091CF02B091D0024091AC0C5091AD0C1C
:104C60006091AE0C7091AF0C841B950BA60BB70B2B
:104C70008093C5029093C602A093C702B093C80266
:104C80004091C5025091C6026091C7027091C8025E
:104C90008091440490914504A0914604B09147044A
:104CA000481759076A077B0768F480910A1D90919D
:104CB0000B1DA0910C1DB0910D1D892B8A2B8B2BE8
:104CC00009F044C28091690A90916A0A0196909312
:104CD0006A0A8093690A81E0809343042091690AFB
:104CE00030916A0A80910104909102040196821722
:104CF000930709F080C081E090E090936A0A809366
:104D0000690A80910F0490911004A0911104B09150
:104D1000120480930B0490930C04A0930D04B093A1
:104D20000E048091CD029091CE02A091CF02B0915D
:104D3000D00280930F0490931004A0931104B093B9
:104D4000120480910A1D90910B1DA0910C1DB09131
:104D50000D1D0196A11DB11D80930A1D90930B1D81
:104D6000A0930C1DB0930D1D80919C1C882309F409
:104D7000B5C0C0912F1B8C2F8076803241F02091DE
:104D80009D1C30919E1C2837354008F0F2C0809160
:104D9000690A90916A0A019709F446C08091690AEC
:104DA00090916A0A039709F43FC08091690A909133
:104DB0006A0A0597C9F18091690A90916A0A079772
:104DC00099F18EE690E09093A70C8093A60C209129
:104DD000C5023091C6024091C7025091C802A3E0BB
:104DE000B0E00F945A2CE3E09695879577956795F8
:104DF000EA95D1F705C180919C1C882321F0809110
:104E0000291B87FFB1CF8091CD0B9091CE0B0297DC
:104E100009F0AACF86E090E090936A0A8093690A2D
:104E200081E080939C1CA0CF86E490E09093A70C37
:104E30008093A60C8091C5029091C602A091C702F2
:104E4000B091C8028093440490934504A093460413
:104E5000B093470480915C0B86FD06C08091231BB4
:104E60009091241B892BD1F58091CF1C1816B4F595
:104E7000E091690AF0916A0A809108029091090212
:104E8000EE0FFF1FEF5EFB4F20813181E091690A39
:104E9000F0916A0AEE0FFF1FEF5EFB4F28173907EC
:104EA0000CF431C120813181A901481B590BCA0181
:104EB000CC71CC3069F020915A0B22952F7030E0E4
:104EC0004091690A50916A0A2417350708F42FC1E6
:104ED0006091690A70916A0A0E94148A8091AC0CF0
:104EE0009091AD0CA091AE0CB091AF0C8093A80C3A
:104EF0009093A90CA093AA0CB093AB0C8091CD0217
:104F00009091CE02A091CF02B091D0028093AC0CD0
:104F10009093AD0CA093AE0CB093AF0C8091361D66
:104F20009091371D4E9620919D1C30919E1C281704
:104F3000390708F007C180912F1B87FF03C18091BB
:104F4000690A90916A0A019709F4F8C08091690A88
:104F500090916A0A059709F4F1C08091690A9091CD
:104F60006A0A039709F0F4C00E9428D40E9400D373
:104F7000E9C0803409F04DC08091690A90916A0AB5
:104F8000019729F18091690A90916A0A0397F9F0D3
:104F90008091690A90916A0A0597C9F08091690A1F
:104FA00090916A0A079799F08EE690E09093A70C8B
:104FB0008093A60C8091C5029091C602A091C70271
:104FC000B091C802B695A795979587953BCF86E493
:104FD00090E09093A70C8093A60C2091C50230918D
:104FE000C6024091C7025091C802A5E0B0E00F94FC
:104FF0005A2CA2E09695879577956795AA95D1F753
:10500000609344047093450480934604909347044E
:1050100021CF803609F043C08091690A90916A0AD5
:10502000019761F18091690A90916A0A039731F1C1
:105030008091690A90916A0A059701F18091690A45
:1050400090916A0A0797D1F08EE690E09093A70CB2
:105050008093A60C2091C5023091C6024091C702F0
:105060005091C802A9E0B0E00F945A2CF5E0969553
:10507000879577956795FA95D1F7C2CF86E490E04A
:105080009093A70C8093A60C2091C5023091C60284
:105090004091C7025091C802ABE0B0E0A2CE8111AE
:1050A000D9CE1092440410924504109246041092F6
:1050B00047041092070410920804109209041092F9
:1050C0000A048091690A90916A0A0197C9F0809157
:1050D000690A90916A0A039799F08091690A909100
:1050E0006A0A059769F08091690A90916A0A0797A0
:1050F00039F08EE690E09093A70C8093A60CAACE90
:1051000086E490E0F8CF20813181E091690AF09146
:105110006A0AEE0FFF1FEF5EFB4F37FF05C02081CD
:105120003181820F931FC4CE80819181C1CE609165
:10513000690A70916A0A621B730BCECE0E94D2D4A8
:105140000E9490D31092CE0B1092CD0BCF91089568
:105150008091690A90916A0A0797A1F705CF0E948A
:105160008FD86093CD027093CE028093CF0290933C
:10517000D0028091690A90916A0A019690936A0A16
:105180008093690A8091CF0B8F5F8093CF0B81E072
:10519000809343048091AC0C9091AD0CA091AE0C27
:1051A000B091AF0C8093A80C9093A90CA093AA0C7B
:1051B000B093AB0C8091CD029091CE02A091CF0222
:1051C000B091D0028093AC0C9093AD0CA093AE0C38
:1051D000B093AF0C80919C1C882321F08091291BF7
:1051E00087FF33C08091690A90916A0A0D9760F039
:1051F0008091690A90916A0A6CE070E00F94FE2B2E
:1052000090936A0A8093690A8091CD0B9091CE0B9E
:1052100081309105B1F0C8F08230910561F00397BB
:10522000C9F110929C1C1092B00C8091471D8F5FA9
:105230008093471D06C088E090E090936A0A8093AF
:10524000690A1092CE0B1092CD0B80919C1C882382
:1052500009F40BC18091EC1C81FF2AC080912F1BA7
:1052600087FF26C08091690A90916A0A0197E1F050
:105270008091690A90916A0A0797B1F08091690A52
:1052800090916A0A049709F0A0C00E9428D40E9455
:1052900000D30EC08091690A90916A0A029789F63C
:1052A00081E080939C1CCDCF0E94D2D40E9490D3E9
:1052B0008091690A90916A0A0D97C8F181E090E0A7
:1052C00090936A0A8093690A80910F049091100468
:1052D000A0911104B091120480930B0490930C04DC
:1052E000A0930D04B0930E048091CD029091CE0254
:1052F000A091CF02B091D00280930F04909310043C
:10530000A0931104B093120480910A1D90910B1D7B
:10531000A0910C1DB0910D1D0196A11DB11D809392
:105320000A1D90930B1DA0930C1DB0930D1D809131
:10533000690A90916A0A019709F04FC087E390E0EB
:105340009093A70C8093A60C81E08093B00C809181
:105350005C0B86FF8AC08091EC1C81FD86C0E091C9
:10536000690AF0916A0A80912F1B8C718C3009F4C4
:105370006BC0E091690AF0916A0A809108029091ED
:105380000902EE0FFF1FEF5EFB4F20813181E0919C
:10539000690AF0916A0AEE0FFF1FEF5EFB4F2817B4
:1053A0003907DCF120813181A901481B590BCA0161
:1053B0002091690A30916A0A6091690A70916A0ABB
:1053C00027303105F0F50C94148A8091690A909188
:1053D0006A0A0A9709F06CCF58CF8091690A9091B8
:1053E0006A0A029719F48DE590E0AACFA091690AA4
:1053F000B0916A0AE091690AF0916A0AAA0FBB1F8C
:10540000AF5EBB4FEE0FFF1FE15FFB4F8D919C9195
:1054100020813181821B930B93CF20813181E091D8
:10542000690AF0916A0AEE0FFF1FEF5EFB4F37FF2C
:1054300005C020813181820F931FBACF8081918175
:10544000B7CF66507109BFCF6091690A70916A0A3F
:10545000EE0FFF1FEF5EFB4F208131818091231BF8
:105460009091241B820F931FAECF08950E948FD876
:105470006093CD027093CE028093CF029093D002BE
:105480008091CD029091CE02A091CF02B091D00236
:105490004091AC0C5091AD0C6091AE0C7091AF0C82
:1054A000841B950BA60BB70B8093C5029093C60285
:1054B000A093C702B093C8024091C5025091C602A2
:1054C0006091C7027091C802809144049091450494
:1054D000A0914604B0914704481759076A077B0713
:1054E00008F4C1C08091690A90916A0A019690936C
:1054F0006A0A8093690A81E0809343048091AC0C2E
:105500009091AD0CA091AE0CB091AF0C892B8A2B71
:105510008B2B61F08091A80C9091A90CA091AA0C02
:10552000B091AB0C892B8A2B8B2B41F41092C502C6
:105530001092C6021092C7021092C8028091690AA6
:1055400090916A0A4197E8F180919C1C8823C9F1E7
:1055500081E090E090936A0A8093690A80910F0439
:1055600090911004A0911104B091120480930B0447
:1055700090930C04A0930D04B0930E048091CD027F
:105580009091CE02A091CF02B091D00280930F04EF
:1055900090931004A0931104B093120480910A1DFB
:1055A00090910B1DA0910C1DB0910D1D0196A11D98
:1055B000B11D80930A1D90930B1DA0930C1DB093F9
:1055C0000D1D10924404109245041092460410924E
:1055D00047041092B00C8091AC0C9091AD0CA0914E
:1055E000AE0CB091AF0C8093A80C9093A90CA09333
:1055F000AA0CB093AB0C8091CD029091CE02A091F9
:10560000CF02B091D0028093AC0C9093AD0CA093DC
:10561000AE0CB093AF0C80915C0B86FF24C0E09180
:10562000690AF0916A0AEE0FFF1FEF5EFB4F80815F
:1056300091812091231B3091241B820F931F209175
:105640000802309109028217930744F0821B930BE2
:105650006091690A70916A0A0C94148A97FFF8CFD6
:10566000820F931FF5CF08950E948FD86093CD02CB
:105670007093CE028093CF029093D0028091CD029E
:105680009091CE02A091CF02B091D0024091AC0C8B
:105690005091AD0C6091AE0C7091AF0C841B950BCA
:1056A000A60BB70B8093C5029093C602A093C702C6
:1056B000B093C8028091690A90916A0A019690930A
:1056C0006A0A8093690A81E0809343048091AC0C5C
:1056D0009091AD0CA091AE0CB091AF0C8093A80C42
:1056E0009093A90CA093AA0CB093AB0C8091CD021F
:1056F0009091CE02A091CF02B091D0028093AC0CD9
:105700009093AD0CA093AE0CB093AF0C80919C1C09
:10571000882309F473C08091690A90916A0A8936D6
:105720009140C9F581E090E090936A0A8093690AFC
:1057300080910F0490911004A0911104B091120473
:1057400080930B0490930C04A0930D04B0930E046B
:105750008091CD029091CE02A091CF02B091D00263
:1057600080930F0490931004A0931104B09312043B
:1057700080910A1D90910B1DA0910C1DB0910D1DE3
:105780000196A11DB11D80930A1D90930B1DA0933E
:105790000C1DB0930D1D80915C0B86FF1FC0809186
:1057A000690A90916A0A81509048880F991F209148
:1057B000231B3091241B820F931F209108023091EC
:1057C00009026091690A70916A0A2817390724F45E
:1057D00076956795821B930B0E94148A8091C5026F
:1057E0009091C602A091C702B091C802B695A79544
:1057F000979587959093F20A8093F10A089580ED2A
:1058000092E00C941F978F929F92AF92BF92CF928B
:10581000DF92EF92FF9280919C1C882309F489C04B
:105820008091341B24E6829FC001112420919D1C8D
:1058300030919E1C2817390708F06FC08091AC0C7E
:105840009091AD0CA091AE0CB091AF0C892B8A2B2E
:105850008B2B09F46EC08091A80C9091A90CA0919B
:10586000AA0CB091AB0C892B8A2B8B2B09F461C04D
:10587000F8942091A60C3091A70C80910F04909180
:105880001004A0911104B091120440910B045091A6
:105890000C0460910D0470910E04841B950BA60BF3
:1058A000B70B8093B10C9093B20CA093B30CB09350
:1058B000B40CC090AC0CD090AD0CE090AE0CF0905D
:1058C000AF0C8091A80C9091A90CA091AA0CB0915A
:1058D000AB0CC81AD90AEA0AFB0A7894D90120E865
:1058E0003DE84BE550E00F94652C4B015C01A4E2D0
:1058F000B0E0A70196010F945A2C9B01AC01C501A1
:10590000B4010F94122CC901FF90EF90DF90CF905B
:10591000BF90AF909F908F90089588E691E0FF90A0
:10592000EF90DF90CF90BF90AF909F908F900C94AE
:105930001F9790E080E0E8CF0C94032C80ED92E07C
:105940000C941F9780910A1D90910B1DA0910C1D26
:10595000B0910D1D892B8A2B8B2B21F080ED92E0CD
:105960000C941F9790E080E00895CF92DF92EF9221
:10597000FF9280919C1C882309F45DC020919D1C9E
:1059800030919E1C8091361D9091371D2817390744
:1059900008F049C0F894E091A60CF091A70C809112
:1059A000AC0C9091AD0CA091AE0CB091AF0C4091AD
:1059B000A80C5091A90C6091AA0C7091AB0C841B9F
:1059C000950BA60BB70B8093B10C9093B20CA093E0
:1059D000B30CB093B40C78942091B10C3091B20C0C
:1059E0004091B30C5091B40CA4E2B0E00F945A2C47
:1059F0006B017C01C092B10CD092B20CE092B30C5E
:105A0000F092B40CDF0120E037E843E953E00F9453
:105A1000652CA70196010F94122CC901FF90EF90FD
:105A2000DF90CF90089588E691E0FF90EF90DF90AF
:105A3000CF900C941F9790E080E0F0CF0F931F93CE
:105A40000E948FD86093CD027093CE028093CF02D4
:105A50009093D0028091CD029091CE02A091CF027E
:105A6000B091D0024091AC0C5091AD0C6091AE0C55
:105A70007091AF0C841B950BA60BB70B8093C502DE
:105A80009093C602A093C702B093C8028091CF0B37
:105A90008F5F8093CF0B81E08093430490919C1C97
:105AA000992309F4B6C04091690A50916A0A20917D
:105AB0000104309102044217530709F07AC021E033
:105AC00030E030936A0A2093690A40910F045091A4
:105AD0001004609111047091120440930B045093D0
