:100000000C94C5100C9432CE0C9407CE0C94DCCD1D
:100010000C94B1CD0C9486CD0C945BCD0C9430CD6A
:100020000C9405CD0C94F6100C94F6100C94F6106C
:100030000C94F6100C94F6100C94F6100C94B4E991
:100040000C94F6100C94B8360C94E0340C94E49AAA
:100050000C94F6100C94F6100C94F6100C94BBCC87
:100060000C94F6100C94C3FC0C9499FC0C94F610B0
:100070000C94F6100C94F6100C94F6100C94F610E8
:100080000C9413E70C948DE60C9407E60C94F61090
:100090000C94F6100C94F6100C94F6100C94F610C8
:1000A0000C94F6100C94F6100C94F1E20C9481E58B
:1000B0000C944DE20C94F6100C94F6100C94DDE4C4
:1000C0000C9439E40C9495E30C94F6100C94F6100F
:1000D0000C94F6100C94F6100C9463FC0C9439FC00
:1000E0000C94F6100C94FF430C944C450C9468F15E
:1000F0000C947DF10C940CF10C946B6B0C94B1F19D
:100100000C9418F10C944A1F0C943EF10C94476522
:100110000C941EF10C94F7720C947EDD0C94047C0C
:100120000C9458BF0C94E5F00C94431D0C948393ED
:100130000C94F4F00C94CC1E0C94BEF00C947958F2
:100140000C948B950C94A5F10C9486B70C94F3BE8B
:100150000C945E720C944ACC0C945FCA0C94A2412D
:100160000D9471220C947CDD0C94CA530C94F513FD
:100170000C9471BF0C94C9590C94FBC50C9471116B
:100180000C94B2CE0C9479730C94A3CA0C94E8CA64
:100190000C9408540C94FAEF0C942FF10C94AE5874
:1001A0000C94C29A0C94B4D60C942CF10C9482DD6D
:1001B0000C94F6500C94586A0C94DFF00C9475C6AD
:1001C0000C948F310C945CBF0C946A580C94041FEF
:1001D0000C9491700C9483690D94EC230C94CB597E
:1001E0000C94A4510C94312F0C945EF00C94EA1CE6
:1001F0000C9404B80C94E82A0C9458320C949E5237
:100200000C9495160C9450430C94A1F00C94AACE27
:100210000C94B5580C9405530C9416570C948A44BE
:100220000C947E1E0C94ABF10C94AEF10C943C1328
:100230000C94C9540C94175C0C9457530D941624C9
:100240000C947D510C942F1F0C946D5A0C94D14337
:100250000C94C4F00C94A9C90C9442C70D94C22309
:100260000C9452C50C94B4620C94657F0C9403F109
:100270000C94521D0C9412590C9498F10C94F7C5DF
:100280000C9415F10C9444F10C9477BF0C942A4A09
:100290000C947FBF0C94DD500C94D3440D943A24FD
:1002A0000C94B8F00C9480CE0C94D6F00C94C6C785
:1002B0000C94ABCA0C94D6670C9404970C94AE6A59
:1002C0000C94C41C0C94E0440C94B7580C9446B2A3
:1002D0000C949EF40C94C2C70C9407240C941BF14C
:1002E0000C940EF00C942A4C0C94F2D60C943F56BD
:1002F0000C94381F0C94E4C40C94901E0C94C1F020
:100300000C94BAD80C94B7B30C9479B30C94A9524A
:100310000C9424F10C94634A0C94BE1C0C946DC68E
:100320000C94A6140C94FD720C94FAF00C94AD7A13
:100330000C9411F00C94F88E0C9492520C9490F052
:100340000C944DF10C9414F00C9410B40C94B04B2C
:100350000C94135B0C9486DD0C9484610C942E8FAA
:100360000C945F4B0C9464BF0C94A8F10C943EC7A2
:100370000D9408250C94B06A0C9481F00C942DF027
:100380000C94AAD80C9402D90C94A21E0C94F34B92
:100390000C94ACC60C943AC70C943BF10C948CDDD5
:1003A0000C94DEC90C9471910C949EF10C940AC4C7
:1003B0000C94E6600C94F7530C94EC310C940E1FE3
:1003C0000C949FB80C94E6C90C94244A0C948A416E
:1003D0000C941E4C0C9408F00C9432C60C94E2C998
:1003E0000C9453F10C94B2F00C94BF570C94FDF0A4
:1003F0000C9443510C948DBF0C9492F10C942445B1
:100400000C9476C40C94E1940C946BCA0C94166C06
:100410000C9473CE0D94B4210C94BEC70C9463CA93
:100420000C9429F10C94D8D60C94E0500C948ACEFC
:100430000C9480DD0C947F180D9419240C941DF0FD
:100440000C9484DD0D9496210C9489D60C94E2F0E2
:100450000C946DC90D9433240D94C3240C942BCCAF
:100460000C9444C70C9436C60C941D1F0C9424F0B5
:100470000C9486CE0C94261F0C94629E0C943E5EC7
:100480000C947AF10C9447D90C9447F10C94C3B0B6
:100490000C94FBC60C94CAF00C9471410C94641D2E
:1004A0000C94A2F10C94FD9E0C9435F10C94B5F0D3
:1004B0000C945E5D0D941C220C9428CB0C940DB30F
:1004C0000C947A590C94EF690C948F710C9497BF2B
:1004D0000C94ED440C94029D0C94624B0C9457D9EF
:1004E0000C946B8E0C943E4A0C94741E0C9465F123
:1004F0000C94FE970C941E5F0C9421F10C94EAC9A5
:100500000C94CBCE0C943B1D0C94434C0C94F4CA2D
:100510000C9492DD0C9450F10C94A5C90C94E84312
:100520000C94F1C10C945FF10C946D1D0C9471C688
:100530000C9489F10C9455440C940B540C9478DD74
:100540000C94EEF00C94FA440C9487C70C9435414B
:100550000C9401F00C9440D70C94D0770C94CF5F9E
:100560000C94411F0C94C9740C9439520D94FE24C0
:100570000C94F7F00C942E9A0C9475430C945858E4
:100580000C947FC70C948A540C9405F00C94C552BB
:100590000C9480F10C94B4C60C94B7530C94A04AFC
:1005A0000C94EEEF0C9409F10C94B9440C94F1F016
:1005B0000C94A3110C9495F10C94C49C0C947A8F18
:1005C0000C9440520C9410590C9490640C947992B1
:1005D0000C944AF10C9486F10C94E0CE0C9496DDC8
:1005E0000C9490DD0C94CC1C0C94E6BB0C940E592E
:1005F0000C9436F00C94D1BE0C94FDEF0C9436C7DD
:100600000C948EDD0C94A3440C945B1D0C948ADD39
:100610000C94B2580C94E82F0C94B3CA0C94441266
:100620000C9423690C9497440C94B4F10C94EE420E
:100630000C94F9100C94CD590C9471C90C9400F1E0
:100640000C94746C0C944B110C9412920C940E53E9
:100650000C94B7F10C9419450C94C7F00C94A34377
:100660000C94AB4D0C9412F10C94734A0C9488DDED
:100670000C942AF00C9489BF0C9413990C94F4EF09
:100680000C94C06B0C9452BF0C947ADD0C94892F9F
:100690000C948C4D0C947B940C9485BF0C94121D7F
:1006A0000C94156B0C9493BF0C947F1D0C941ECA74
:1006B0000C94BEBF0C948AF40C94042C0C94D0526D
:1006C0000C9467CA0C94ECCA0C949F7D0C940BF0AC
:1006D0000C9404940C946E440C9494DD0C94AAB184
:1006E0000C946DBF0C9492BF0C94BECE0C94AA7F58
:1006F0000C9494F40C943A620C94A9F00C94ECCE03
:100700000C945A720C94664C0C9488F00C94CCD8CF
:100710000C949BF10C94F9720C94F3C60C94D61EB5
:100720000C9430F00C94A4D70C948FF10C943743B4
:100730000C94872F0C940A6F0C9474F10C9426D7A8
:100740000C9457450C94B0580C94C37F0C940E45F0
:100750000C94F7EF0C94FFC60C94871E0C94D31CDA
:100760000C9449630C94BA8C0C9496B90C94DE5199
:100770000C94C2BE0C9460BF0C9459F10C94897E09
:100780000C9497F00C9438F10C94D8C20C949BBF45
:100790000C94B0C60C9410730C9426CA0C946F1E63
:1007A0000C9478590C94EFC60C941A1D0C94EBC65B
:1007B0000C9441F10C9467BF0C94A4F00C946EF16E
:1007C0000C9488CE0C94C6970C9409420C94D0F0EB
:1007D0000C94C0C50C94EBF00C94C0540C94B9BAB2
:1007E0000C9432F10C941AF00C94F8100C947ECE08
:1007F0000C948CF10C9460300C9424310C94991569
:100800000C94DCF00C946BF10C94B9180C94D54258
:100810000C94BD920C943B5A0C94DC530C94F9CE7E
:100820000C947D550C9472580C940C4B0C94749C45
:100830000C947B580C9422CA0C948D570C94D9F0CC
:100840000C9454580C94FA530C94DA1C0C94AA6629
:100850000C940FF10C94BC500C94778D0C948C4339
:100860000C9460530C946D580C9471F10C9482CEDE
:100870000C9406F10C94859D0C94B8290C9489C5B0
:100880000C94E5BE0C942D4E0C947BBF0C9438C98F
:100890000C94E5530C942ACA0C947BC70C940CD787
:1008A0000C947B4B0C94B3580C9444B10C9441457C
:1008B0000C9456F10C9483F10C94EBF40C9483C7D4
:1008C0000C945CF10C9477580C94F0CA0C9427F0BB
:1008D0000C9413510C94E8F00C94554C0C94832F09
:1008E0000C9433F00C949C5D0C94DA560C94761DA9
:1008F0000C94D7750C94C6300C94BBF00C94A127C3
:100900000C9441540C94F7C60C9427F10C940111EB
:100910000C948D540C9439F00C9482900C94D35315
:100920000C945B4A0C943CF00C9467D90C94AFCABD
:100930000C94704B0C94FFBE0C9472960C942696FB
:100940000C9484510C94F1EF0C942CCB0C94C02F8C
:100950000C9422560D94D3230C945DF40C944A41CC
:100960000C9430CB0C9495980C94CDF00C946F5A59
:100970000C94D3F00C94AF4A0C94EBEF0C9477F1F9
:100980000C94DF7F0C9462F10C94AFF00C9417F090
:100990000C949D5D0C94EE530C94FD9D0C94A7CA91
:1009A0000C946FCA0C944BFD526573657420636F91
:1009B0006E74726F6C2069732063757272656E74E9
:1009C0006C792064697361626C65642E00436F6D9D
:1009D0006D732068616C7465642E204E6578742098
:1009E000627974652077696C6C2072657365742018
:1009F0007468652041726475696E6F2E000A5061DB
:100A0000676520686173206E6F74206265656E2073
:100A1000696D706C656D656E7465642079657400D0
:100A20000A426F6F7374206C6F6F6B757020746106
:100A3000626C65000A326E642049676E6974696F82
:100A40006E204D6170000A326E64204675656C2020
:100A50004D6170000A506167652039204366670068
:100A60000A5472696D2031205461626C65000A5627
:100A70005654204D6170000A426F6F7374204D61AF
:100A800070000A5067203620436F6E666967000A5F
:100A9000414652204D6170000A5067203420436661
:100AA00067000A49676E6974696F6E204D61700056
:100AB0000A5067203220436667000A5645204D6180
:100AC00070004572723A20556E6B6E6F776E2063C0
:100AD0006D64000A3D3D3D436F6D6D616E6420485D
:100AE000656C703D3D3D0A0A416C6C20636F6D6D15
:100AF000616E6473206172652073696E676C652036
:100B000063686172616374657220616E64206172F2
:100B10006520636F6E636174656E617465642077D0
:100B200069746820746865697220706172616D65AE
:100B300074657273200A776974686F7574207370B6
:100B4000616365732E53796E7461783A20203C633B
:100B50006F6D6D616E643E2B3C706172616D65748A
:100B60006572313E2B3C706172616D6574657232E5
:100B70003E2B3C706172616D657465724E3E0A0A6F
:100B80003D3D3D4C697374206F6620436F6D6D6110
:100B90006E64733D3D3D0A0A41202D204469737007
:100BA0006C617973203331206279746573206F66CC
:100BB0002063757272656E745374617475732076F8
:100BC000616C75657320696E2062696E617279204F
:100BD000286C6976652064617461290A42202D20A1
:100BE0004275726E2063757272656E74206D6170ED
:100BF00020616E6420636F6E66696750616765206F
:100C000076616C75657320746F20656570726F6DA9
:100C10000A43202D205465737420434F4D20706F7C
:100C200072742E2020557365642062792054756E8D
:100C3000657273747564696F20746F2073656520C5
:100C40007768657468657220616E20454355206938
:100C500073206F6E206120676976656E2073657200
:100C600069616C200A20202020706F72742E20523F
:100C7000657475726E7320612062696E617279208D
:100C80006E756D6265722E0A4E202D205072696E4F
:100C900074206E6577206C696E652E0A50202D20B9
:100CA0005365742063757272656E74207061676538
:100CB0002E202053796E7461783A2020502B3C709E
:100CC0006167654E756D6265723E0A52202D205334
:100CD000616D65206173204120636F6D6D616E648D
:100CE0000A53202D20446973706C61792073696701
:100CF0006E6174757265206E756D6265720A512041
:100D00002D2053616D65206173205320636F6D6DDD
:100D1000616E640A56202D20446973706C617920DD
:100D20006D6170206F7220636F6E666967506167D6
:100D3000652076616C75657320696E2062696E61ED
:100D400072790A57202D20536574206F6E652062DA
:100D500079746520696E206D6170206F7220636FF9
:100D60006E666967506167652E20204578706563FF
:100D700074732062696E61727920706172616D6551
:100D8000746572732E200A2020202053796E7461BE
:100D9000783A2020572B3C6F66667365743E2B3C77
:100DA0006E6577627974653E0A74202D20536574F0
:100DB0002063616C6962726174696F6E2076616C28
:100DC0007565732E202045787065637473206269A1
:100DD0006E61727920706172616D65746572732ED7
:100DE00020205461626C6520696E646578206973A7
:100DF0002065697468657220302C200A202020202C
:100E0000312C206F7220322E202053796E7461783D
:100E10003A2020742B3C74626C655F6964783E2BC9
:100E20003C6E657756616C7565313E2B3C6E65771F
:100E300056616C7565323E2B3C6E657756616C75FC
:100E4000654E3E0A5A202D20446973706C617920EA
:100E500063616C6962726174696F6E2076616C7532
:100E600065730A54202D20446973706C6179732076
:100E700032353620746F6F7468206C6F6720656E32
:100E8000747269657320696E2062696E6172790A95
:100E900072202D20446973706C617973203235366D
:100EA00020746F6F7468206C6F6720656E74726950
:100EB00065730A55202D2050726570617265206639
:100EC0006F72206669726D776172652075706461FA
:100ED00074652E20546865206E657874206279747C
:100EE000652072656365697665642077696C6C203E
:100EF0006361757365207468652041726475696EFD
:100F00006F20746F2072657365742E0A3F202D2048
:100F1000446973706C6179732074686973206865C3
:100F20006C702070616765002C2000575545004F9C
:100F30003200496E6C65742074656D7000436F6F8C
:100F40006C616E7400526573657420636F6E7472A9
:100F50006F6C2069732063757272656E746C792092
:100F600064697361626C65642E00436F6D6D7320FC
:100F700068616C7465642E204E65787420627974A3
:100F8000652077696C6C2072657365742074686580
:100F90002041726475696E6F2E00537065656475CB
:100FA000696E6F20323032322E31302D646576001A
:100FB000737065656475696E6F203230323231301E
:100FC0002D646576004552523B20496E636F727204
:100FD00065637420454550524F4D2073697A650012
:100FE0003030310020002000200020002020202070
:100FF000000000800020012001800020018000F01E
:10100000008001C000C0002001C00080002001005D
:1010100001040E11191B20292B2D2F31333537399F
:101020003B3D3F414345474B4D4F515557595D61FE
:10103000666D7700000000963007772C610EEEBADF
:1010400051099919C46D078FF46A7035A563E9A336
:1010500095649E3288DB0EA4B8DC791EE9D5E08861
:10106000D9D2972B4CB609BD7CB17E072DB8E7913C
:101070001DBF906410B71DF220B06A4871B9F3DE4D
:1010800041BE847DD4DA1AEBE4DD6D51B5D4F4C7EA
:1010900085D38356986C13C0A86B647AF962FDEC13
:1010A000C9658A4F5C0114D96C0663633D0FFAF57C
:1010B0000D088DC8206E3B5E10694CE44160D5720E
:1010C0007167A2D1E4033C47D4044BFD850DD26B7C
:1010D000B50AA5FAA8B5356C98B242D6C9BBDB40B3
:1010E000F9BCACE36CD832755CDF45CF0DD6DC596A
:1010F0003DD1ABAC30D9263A00DE518051D7C8166D
:1011000061D0BFB5F4B42123C4B3569995BACF0FBB
:10111000A5BDB89EB802280888055FB2D90CC624C0
:10112000E90BB1877C6F2F114C6858AB1D61C13D35
:101130002D66B69041DC760671DB01BC20D2982A80
:1011400010D5EF8985B1711FB5B606A5E4BF9F33F1
:10115000D4B8E8A2C9077834F9000F8EA809961808
:10116000980EE1BB0D6A7F2D3D6D08976C6491016F
:101170005C63E6F4516B6B62616C1CD83065854E24
:101180000062F2ED95066C7BA5011BC1F408825745
:10119000C40FF5C6D9B06550E9B712EAB8BE8B7C6A
:1011A00088B9FCDF1DDD62492DDA15F37CD38C652F
:1011B0004CD4FB5861B24DCE51B53A7400BCA3E299
:1011C00030BBD441A5DF4AD795D83D6DC4D1A4FB2F
:1011D000F4D6D36AE96943FCD96E34468867ADD04A
:1011E000B860DA732D0444E51D03335F4C0AAAC9C5
:1011F0007C0DDD3C710550AA41022710100BBE8604
:10120000200CC925B56857B3856F2009D466B99FEE
:10121000E461CE0EF9DE5E98C9D9292298D0B0B427
:10122000A8D7C7173DB359810DB42E3B5CBDB7ADF0
:101230006CBAC02083B8EDB6B3BF9A0CE2B6039A7D
:10124000D2B1743947D5EAAF77D29D1526DB048336
:1012500016DC73120B63E3843B64943E6A6D0DA845
:101260005A6A7A0BCF0EE49DFF099327AE000AB1AC
:101270009E077D44930FF0D2A3088768F2011EFEFB
:10128000C206695D5762F7CB67658071366C19E7F6
:10129000066B6E761BD4FEE02BD3895A7ADA10CC1B
:1012A0004ADD676FDFB9F9F9EFBE8E43BEB717D5D8
:1012B0008EB060E8A3D6D67E93D1A1C4C2D83852EE
:1012C000F2DF4FF167BBD16757BCA6DD06B53F4BD8
:1012D00036B248DA2B0DD84C1B0AAFF64A033660FB
:1012E0007A0441C3EF60DF55DF67A8EF8E6E317976
:1012F000BE69468CB361CB1A8366BCA0D26F25361B
:10130000E2685295770CCC03470BBBB91602222F2B
:10131000260555BE3BBAC5280BBDB2925AB42B0464
:101320006AB35CA7FFD7C231CFD0B58B9ED92C1D35
:10133000AEDE5BB0C2649B26F263EC9CA36A750AC6
:10134000936D02A906099C3F360EEB856707721361
:10135000570005824ABF95147AB8E2AE2BB17B38AC
:101360001BB60C9B8ED2920DBED5E5B7EFDC7C216F
:10137000DFDB0BD4D2D38642E2D4F1F8B3DD686E62
:1013800083DA1FCD16BE815B26B9F6E177B06F77A1
:1013900047B718E65A0888706A0FFFCA3B06665CB2
:1013A0000B0111FF9E658F69AE62F8D3FF6B61453B
:1013B000CF6C1678E20AA0EED20DD75483044EC249
:1013C000B30339612667A7F71660D04D476949DB3B
:1013D000776E3E4A6AD1AEDC5AD6D9660BDF40F052
:1013E0003BD83753AEBCA9C59EBBDE7FCFB247E921
:1013F000FFB5301CF2BDBD8AC2BACA3093B353A642
:10140000A3B4240536D0BA9306D7CD2957DE54BFEE
:1014100067D9232E7A66B3B84A61C4021B685D940B
:101420002B6F2A37BE0BB4A18E0CC31BDF055A8D60
:10143000EF022D0000000041311B1982623632C3D9
:10144000532D2B04C56C6445F4777D86A75A56C787
:1014500096414F088AD9C849BBC2D18AE8EFFACB76
:10146000D9F4E30C4FB5AC4D7EAEB58E2D839ECF37
:101470001C98875112C24A1023D953D370F4789222
:1014800041EF6155D7AE2E14E6B537D7B5981C9607
:1014900084830559981B8218A9009BDBFA2DB09A0A
:1014A000CB36A95D5D77E61C6C6CFFDF3F41D49EB7
:1014B0000E5ACDA2248495E3159F8C2046B2A761D5
:1014C00077A9BEA6E1E8F1E7D0F3E82483DEC3659F
:1014D000B2C5DAAAAE5D5DEB9F464428CC6B6F695E
:1014E000FD7076AE6B3139EF5A2A202C09070B6D4F
:1014F000381C12F33646DFB2075DC6715470ED300A
:10150000656BF4F7F32ABBB6C231A275911C89341E
:10151000A00790FBBC9F17BA8D840E79DEA92538F1
:10152000EFB23CFF79F373BE48E86A7D1BC5413CCE
:101530002ADE58054F79F0447E62E9872D4FC2C6F6
:101540001C54DB018A159440BB0E8D83E823A6C290
:10155000D938BF0DC5A0384CF4BB218FA7960ACE51
:10156000968D130900CC5C4831D7458B62FA6ECA60
:1015700053E177545DBBBA156CA0A3D63F8D889715
:101580000E96915098D7DE11A9CCC7D2FAE1EC9310
:10159000CBFAF55CD762721DE6796BDEB554409FDD
:1015A000844F5958120E161923150FDA7038249BE0
:1015B00041233DA76BFD65E65AE67C2509CB5764C0
:1015C00038D04EA3AE9101E29F8A1821CCA7336098
:1015D000FDBC2AAFE124ADEED03FB42D83129F6C49
:1015E000B20986AB2448C9EA1553D029467EFB6868
:1015F0007765E2F6793F2FB7482436741B091D350D
:101600002A1204F2BC534BB38D485270DE65793117
:10161000EF7E60FEF3E6E7BFC2FDFE7C91D0D53DD4
:10162000A0CBCCFA368A83BB07919A7854BCB139E7
:1016300065A7A84B98833B0AA99822C9FAB50988DF
:10164000CBAE104F5DEF5F0E6CF446CD3FD96D8C85
:101650000EC27443125AF3022341EAC1706CC18076
:101660004177D847D7369706E62D8EC5B500A584B5
:10167000841BBC1A8A41715BBB5A6898E87743D9CE
:10168000D96C5A1E4F2D155F7E360C9C2D1B27DD05
:101690001C003E120098B9533183A09062AE8BD1EA
:1016A00053B59216C5F4DD57F4EFC494A7C2EFD535
:1016B00096D9F6E9BC07AEA88D1CB76BDE319C2A23
:1016C000EF2A85ED796BCAAC4870D36F1B5DF82E9D
:1016D0002A46E1E136DE66A007C57F6354E854225E
:1016E00065F34DE5F3B202A4C2A91B6791843026CD
:1016F000A09F29B8AEC5E4F99FDEFD3ACCF3D67BB6
:10170000FDE8CFBC6BA980FD5AB2993E099FB27F1C
:101710003884ABB0241C2CF115073532462A1E73D1
:10172000773107B4E17048F5D06B513683467A774C
:10173000B25D634ED7FACB0FE6E1D2CCB5CCF98DD2
:1017400084D7E04A1296AF0B238DB6C870A09D894E
:1017500041BB84465D2303076C381AC43F153185AD
:101760000E0E2842984F6703A9547EC0FA7955811E
:10177000CB624C1FC538815EF423989DA70EB3DC65
:101780009615AA1B0054E55A314FFC996262D7D8CE
:101790005379CE174FE149567EFA50952DD77BD419
:1017A0001CCC62138A8D2D52BB963491E8BB1FD09E
:1017B000D9A006ECF37E5EADC265476E91486C2FF2
:1017C000A05375E836123AA90709236A5424082B56
:1017D000653F11E479A796A548BC8F661B91A427A5
:1017E0002A8ABDE0BCCBF2A18DD0EB62DEFDC02326
:1017F000EFE6D9BDE1BC14FCD0A70D3F838A267E5D
:10180000B2913FB924D070F815CB693B46E6427AD5
:1018100077FD5BB56B65DCF45A7EC5370953EE7610
:101820003848F7B1AE09B8F09F12A133CC3F8A72A5
:10183000FD249300000000376AC2016ED48403596E
:10184000BE4602DCA80907EBC2CB06B27C8D04853C
:10185000164F05B851130E8F3BD10FD685970DE16A
:10186000EF550C64F91A095393D8080A2D9E0A3DC6
:10187000475C0B70A3261C47C9E41D1E77A21F29D5
:101880001D601EAC0B2F1B9B61ED1AC2DFAB18F560
:10189000B56919C8F23512FF98F713A626B1119150
:1018A0004C7310145A3C152330FE147A8EB8164D22
:1018B000E47A17E0464D38D72C8F398E92C93BB960
:1018C000F80B3A3CEE443F0B84863E523AC03C65EE
:1018D00050023D58175E366F7D9C3736C3DA3501AE
:1018E000A9183484BF5731B3D59530EA6BD332DDB4
:1018F00001113390E56B24A78FA925FE31EF27C98D
:101900005B2D264C4D62237B27A0222299E62015D1
:10191000F3242128B4782A1FDEBA2B4660FC2971F3
:101920000A3E28F41C712DC376B32C9AC8F52EAD4F
:10193000A2372FC08D9A70F7E75871AE591E739970
:1019400033DC721C2593772B4F517672F117744557
:101950009BD57578DC897E4FB64B7F16080D7D21AF
:1019600062CF7CA4748079931E4278CAA0047AFD69
:10197000CAC67BB02EBC6C87447E6DDEFA386FE938
:1019800090FA6E6C86B56B5BEC776A025231683503
:1019900038F369087FAF623F156D6366AB2B615109
:1019A000C1E960D4D7A665E3BD6464BA0322668D3D
:1019B00069E06720CBD74817A115494E1F534B79D3
:1019C00075914AFC63DE4FCB091C4E92B75A4CA569
:1019D000DD984D989AC446AFF00647F64E4045C193
:1019E0002482444432CD4173580F402AE649421DB7
:1019F0008C8B435068F154670233553EBC755709D0
:101A0000D6B7568CC0F853BBAA3A52E2147C50D5D4
:101A10007EBE51E839E25ADF53205B86ED6659B14C
:101A200087A4583491EB5D03FB295C5A456F5E6DCA
:101A30002FAD5F801B35E1B771F7E0EECFB1E2D992
:101A4000A573E35CB33CE66BD9FEE73267B8E50506
:101A50000D7AE4384A26EF0F20E4EE569EA2EC61A0
:101A6000F460EDE4E22FE8D388EDE98A36ABEBBD14
:101A70005C69EAF0B813FDC7D2D1FC9E6C97FEA951
:101A80000655FF2C101AFA1B7AD8FB42C49EF97532
:101A9000AE5CF848E900F37F83C2F2263D84F01182
:101AA0005746F1944109F4A32BCBF5FA958DF7CD68
:101AB000FF4FF6605D78D95737BAD80E89FCDA390E
:101AC000E33EDBBCF571DE8B9FB3DFD221F5DDE5B4
:101AD0004B37DCD80C6BD7EF66A9D6B6D8EFD481DC
:101AE000B22DD504A462D033CEA0D16A70E6D35D06
:101AF0001A24D210FE5EC527949CC47E2ADAC649F9
:101B00004018C7CC5657C2FB3C95C3A282D3C1959F
:101B1000E811C0A8AF4DCB9FC58FCAC67BC9C8F11D
:101B2000110BC9740744CC436D86CD1AD3C0CF2D99
:101B3000B902CE4096AF9177FC6D902E422B921950
:101B400028E9939C3EA696AB546497F2EA2295C589
:101B500080E094F8C7BC9FCFAD7E9E9613389CA1C1
:101B600079FA9D246FB598130577994ABB319B7D0F
:101B7000D1F39A3035898D075F4B8C5EE10D8E690C
:101B80008BCF8FEC9D808ADBF7428B82490489B52D
:101B900023C68888649A83BF0E5882E6B01E80D11F
:101BA000DADC8154CC938463A651853A1817870DEB
:101BB00072D586A0D0E2A997BA20A8CE0466AAF969
:101BC0006EA4AB7C78EBAE4B1229AF12AC6FAD2597
:101BD000C6ADAC1881F1A72FEB33A6765575A4419D
:101BE0003FB7A5C429F8A0F3433AA1AAFD7CA39D61
:101BF00097BEA2D073C4B5E71906B4BEA740B68994
:101C0000CD82B70CDBCDB23BB10FB3620F49B155FA
:101C1000658BB06822D7BB5F4815BA06F653B8315A
:101C20009C91B9B48ADEBC83E01CBDDA5E5ABFED7C
:101C30003498BE000000006567BCB88BC809AAEEE6
:101C4000AFB5125797628F32F0DE37DC5F6B25B984
:101C500038D79DEF28B4C58A4F087D64E0BD6F0179
:101C60008701D7B8BFD64ADDD86AF23377DFE056AE
:101C70001063589F571950FA30A5E8149F10FA7155
:101C8000F8AC42C8C07BDFADA7C7674308727526B2
:101C90006FCECD707FAD951518112DFBB7A43F9E6B
:101CA000D0188727E8CF1A428F73A2AC20C6B0C9DC
:101CB000477A083EAF32A05BC88E18B5673B0AD0A2
:101CC0000087B26938502F0C5FEC97E2F059858796
:101CD00097E53DD1878665B4E03ADD5A4F8FCF3F17
:101CE0002833778610E4EAE37758520DD8ED406840
:101CF000BF51F8A1F82BF0C49F97482A30225A4FC1
:101D0000579EE2F66F497F9308F5C77DA740D51827
:101D1000C0FC6D4ED09F352BB7238DC518969FA064
:101D20007F2A271947FDBA7C204102928FF410F7D1
:101D3000E848A83D58149B583FA823B6901D31D3BE
:101D4000F7A1896ACF76140FA8CAACE1077FBE84D9
:101D500060C306D270A05EB7171CE659B8A9F43C60
:101D6000DF154C85E7C2D1E0807E690E2FCB7B6BFF
:101D70004877C3A20F0DCBC768B17329C704614C64
:101D8000A0B8D9F5986F4490FFD3FC7E5066EE1B47
:101D900037DA564D27B90E284005B6C6EFB0A4A3D2
:101DA000880C1C1AB0DB817FD767399178D22BF46D
:101DB0001F6E9303F7263B66909A83883F2F91ED21
:101DC000589329546044B43107F80CDFA84D1EBA6B
:101DD000CFF1A6ECDF92FE89B82E4667179B54021E
:101DE0007027ECBB48F071DE2F4CC93080F9DB5511
:101DF000E745639CA03F6BF9C783D3176836C17270
:101E00000F8A79CB375DE4AE50E15C40FF544E253C
:101E100098E8F673888BAE16EF3716F84082049D6B
:101E2000273EBC241FE92141785599AFD7E08BCAE2
:101E3000B05C333BB659ED5ED1E555B07E5047D529
:101E400019ECFF6C213B62094687DAE7E932C88268
:101E50008E8E70D49EED28B1F951905F56E4823A8F
:101E600031583A83098FA7E66E331F08C1860D6D7E
:101E7000A63AB5A4E140BDC186FC052F2949174A01
:101E80004EF5AFF376223296119E8A78BE2B981DBE
:101E9000D997204BC9F4782EAE48C0C001FDD2A519
:101EA00066416A1C5E96F779392A4F97969F5DF2D4
:101EB000F123E505196B4D607ED7F58ED162E7EB16
:101EC000B6DE5F528E09C237E9B57AD9460068BCE2
:101ED00021BCD0EA31DF888F56633061F9D6220405
:101EE0009E6A9ABDA6BD07D8C101BF366EB4AD5378
:101EF0000908159A4E721DFF29CEA511867BB7746D
:101F0000E1C70FCDD91092A8BEAC2A4611193823CB
:101F100076A5807566C6D810017A60FEAECF729B3A
:101F2000C973CA22F1A457479618EFA939ADFDCC61
:101F30005E114506EE4D766389F1CE8D2644DCE8D0
:101F400041F86451792FF9341E9341DAB12653BF19
:101F5000D69AEBE9C6F9B38CA1450B620EF01907CE
:101F6000694CA1BE519B3CDB362784359992965033
:101F7000FE2E2E99B95426FCDEE89E12715D8C77F8
:101F800016E134CE2E36A9AB498A1145E63F03202F
:101F90008183BB7691E0E313F65C5BFD59E94998D8
:101FA0003E55F12106826C44613ED4AACE8BC6CF49
:101FB000A9377E38417FD65D26C36EB389767CD63D
:101FC000EECAC46FD61D590AB1A1E1E41E14F38113
:101FD00079A84BD769CB13B20E77AB5CA1C2B939E4
:101FE000C67E0180FEA99CE59915240B36A0366EAD
:101FF000511C8EA7166686C271DA3E2CDE6F2C4904
:10200000B9D394F081040995E6B8B17B490DA31EBC
:102010002EB11B483ED2432D596EFBC3F6DBE9A619
:102020009167511FA9B0CC7ACE0C749461B966F156
:102030000605DE00002100240027002A002D0030C4
:1020400000330001010000040107010A0100002221
:1020500000250028002B002E003100340002010072
:1020600000050108010B01000020002300260029C3
:10207000002C002F003200000100000301060109BE
:102080000105050505070508080808020202020AFD
:102090000A0808040404040101010101010101030B
:1020A00003030303030303040707070C0C0C0C0CC6
:1020B0000C0C0C0202020206060606060606060BB9
:1020C0000B0B0B0B0B0B0B01021020200808102030
:1020D00040102040800201020108040201010204B4
:1020E0000810204080804020100804020180040273
:1020F00001804020100804020108040201010204CA
:102100000810204080010204081020408000000ACE
:102110000B02090C0D0E080703040100000000006B
:1021200000000000000000000000000000000000AF
:10213000000000000000000000121110000000006C
:10214000000000000000000000000000000000008F
:10215000000000537065656475696E6F00537065AB
:10216000656475696E6F20323031392E30382D73C9
:10217000657200537065656475696E6F206373786E
:1021800030323031392E38004BFD11241FBECFEFD5
:10219000D1E2DEBFCDBF00E00CBF12E0A0E0B2E0B4
:1021A000E6EDF0E602E00BBF02C007900D92A43A04
:1021B000B107D9F720E2A4EAB2E001C01D92A0382D
:1021C000B207E1F710E1C5ECD0E100E006C02197CD
:1021D0000109802FFE010F944630C43CD10780E0F6
:1021E0000807A9F70E94D9FF0D9469300C940000EC
:1021F00008951092E30B1092E20B81E080935E034E
:1022000008958091830D807F803479F58091581DE9
:102210008C718C30C9F488E090E090936C038093CB
:102220006B0382E090E090936A038093690384E0FB
:1022300090E0909368038093670386E090E090932A
:10224000660380936503089524E030E030936C03C7
:1022500020936B0382E090E090936A03809369037C
:102260003093680320936703EACF803661F780914B
:10227000581D8C718C3079F286E090E090936C035D
:1022800080936B0382E090E090936A0380936903EC
:1022900024E030E0E5CF8091F81E82319CF487E0A5
:1022A00090E090936C0380936B0382E090E09093B6
:1022B0006A038093690385E090E0909368038093BC
:1022C0006703089586E090E090936C0380936B031E
:1022D00081E090E090936A038093690384E090E04A
:1022E000ECCF80914A0C90914B0C20914C1D309179
:1022F0004D1D821B930B2091190230911A028217F7
:1023000093079CF0821B930B0197843B910590F0FF
:1023100082E090E090936C0380936B0381E090E007
:1023200090936A0380936903089597FFEDCF820F1E
:10233000931FEACF81E090E090936C0380936B034E
:1023400082E090E0EDCF20915B1D8091581D8C7153
:102350008C3021F48091511D322F81FD30E0E091CD
:102360004C1DF0914D1D6091CF0E7091D00E80915B
:102370004A0C90914B0C8E1B9F0B0F94DD2D230F5D
:102380003327331F261737070CF05DC0621B730B12
:1023900070936C0360936B036091CF0E7091D00EBD
:1023A0008091F90B9091FA0B8E1B9F0B0F94DD2DF2
:1023B000261737070CF04EC0621B730B70936A032D
:1023C000609369036091CF0E7091D00E8091F50BF0
:1023D0009091F60B8E1B9F0B0F94DD2D2617370760
:1023E0000CF03FC0621B730B70936803609367032C
:1023F0006091CF0E7091D00E8091F70B9091F80BF9
:102400008E1B9F0B0F94DD2D261737078CF5621B53
:10241000730B70936603609365036091CF0E7091A8
:10242000D00E8091FB0B9091FC0B8E1B9F0B0F9499
:10243000DD2D2617370714F5621B730B70935103BC
:10244000609350030895161617060CF4A1CF620F7F
:10245000731F9ECF161617060CF4B0CF620F731FB2
:10246000ADCF161617060CF4BFCF620F731FBCCF8B
:102470001616170674F2620F731FCBCF16161706C7
:10248000ECF2620F731FDACFEF92FF920F931F935C
:10249000CF93DF9300915B1D8091581D8C718C3020
:1024A00021F48091511D202F81FD20E0E0904C1DF2
:1024B000F0904D1D6091CF0E7091D00E80914A0C1E
:1024C00090914B0C8E199F090F94DD2D615071096D
:1024D00010E030E0F901E00FF11FE617F7070CF00C
:1024E000A9C06E1B7F0BC091AD04D091AE04C6177E
:1024F000D70720F4061717070CF0BE012C0F3D1F5D
:102500002617370708F4B90170936C0360936B03C7
:102510006091CF0E7091D00E8091F90B9091FA0BD3
:102520008E199F090F94DD2D61507109E617F70789
:102530000CF087C06E1B7F0BC617D70720F4061759
:1025400017070CF0BE012617370708F4B90170937E
:102550006A03609369036091CF0E7091D00E8091F1
:10256000F50B9091F60B8E199F090F94DD2D61509C
:102570007109E617F7070CF06BC06E1B7F0BC617CF
:10258000D70720F4061717070CF0BE0126173707E8
:1025900008F4B90170936803609367036091CF0EEC
:1025A0007091D00E8091F70B9091F80B8E199F09C6
:1025B0000F94DD2D61507109E617F7070CF04FC03D
:1025C0006E1B7F0BC617D70720F4061717070CF0F2
:1025D000BE012617370708F4B901709366036093AC
:1025E00065036091CF0E7091D00E8091FB0B90919E
:1025F000FC0B8E199F090F94DD2D61507109E617B0
:10260000F707A4F56E1B7F0BC617D70720F4061734
:1026100017070CF0BE012617370708F4B9017093AD
:10262000510360935003DF91CF911F910F91FF9061
:10263000EF900895161617060CF455CF6E0F7F1FF6
:1026400052CF161617060CF477CF6E0F7F1F74CF7C
:10265000161617060CF493CF6E0F7F1F90CF161629
:1026600017060CF4AFCF6E0F7F1FACCF16161706F0
:102670005CF26E0F7F1FC8CFCF92DF92EF92FF9276
:10268000E0915E0CF0915F0C1995893621E092077C
:102690001CF088569140F9CF20914C1D30914D1D72
:1026A000821B930B2091C61F2370223031F420919E
:1026B000C51D3091C61D821B930B4091C81D9C0106
:1026C000220F331F50E0A0E0B1E0A41BB50B0F9424
:1026D0004E306B017C01A091891FB0918A1F9A0135
:1026E0000F945630C60ED71EE81EF91ECD2CDE2CD8
:1026F000EF2CFF24E7FCFA94D0928A1FC092891F26
:10270000FF90EF90DF90CF900895FC0140815181C0
:102710004B5B5E4F2281205130E0220F331FCA01F4
:10272000821B930B0895FC01408151814B595F4FEF
:102730002281285430E0220F331FCA01821B930BE1
:102740000895FC0120813181295B3F4F9281905493
:10275000892F90E0880F991F820F931F0895FC0125
:10276000408151814B595F4F2281285430E0220F24
:10277000331FCA01821B930B0895FC0140815181D4
:102780004B5D5F4F2281245130E0220F331FCA017D
:10279000821B930B0895FC0120813181295E3F4FFC
:1027A00092819051892F90E0880F991F820F931F7B
:1027B0000895FC01408151814F5B5F4F22812A5275
:1027C00030E0220F331FCA01821B930B0895FC01D6
:1027D00020813181255D3F4F92819452892F90E075
:1027E000880F991F820F931F08958091E20B90919B
:1027F000E30B499719F41092C51E08950E9406CC68
:102800006093790370937A0380937B0390937C03A6
:102810008091790390917A03A0917B03B0917C031E
:102820004091D50E5091D60E6091D70E7091D80E72
:10283000841B950BA60BB70B8093710390937203C7
:10284000A0937303B09374038091E20B9091E30B18
:10285000892B09F05BC081E090E09093E30B8093BB
:10286000E20B8091BB049091BC04A091BD04B09197
:10287000BE048093B7049093B804A093B904B093B6
:10288000BA048091790390917A03A0917B03B0916F
:102890007C038093BB049093BC04A093BD04B093CD
:1028A000BE0480915E0391E0892780935E0390933C
:1028B000C51E8091331F9091341FA091351FB09198
:1028C000361F0196A11DB11D8093331F9093341FB5
:1028D000A093351FB093361F8FE090E09093D00EF9
:1028E0008093CF0E81E08093EF04809179039091E3
:1028F0007A03A0917B03B0917C038093D50E9093D3
:10290000D60EA093D70EB093D80E08958091E20B07
:102910009091E30B01969093E30B8093E20BA091CF
:10292000E20BB091E30BE091E20BF091E30BAA0F05
:10293000BB1FA354BB4FEE0FFF1FE554FB4F8D9100
:102940009C9120813181821B930BC8CF8091C51E41
:102950000E9406CC60935F037093600380936103D1
:102960009093620380915F0390916003A091610353
:10297000B09162034091F90D5091FA0D6091FB0DF9
:102980007091FC0D841B950BA60BB70B8093750300
:1029900090937603A0937703B093780340917503E7
:1029A0005091760360917703709178038091B3041E
:1029B0009091B404A091B504B091B604481759079A
:1029C0006A077B0708F4B4C080915F0390916003AD
:1029D000A0916103B09162038093F90D9093FA0D79
:1029E000A093FB0DB093FC0D91E09093EF04409108
:1029F0007503509176036091770370917803769513
:102A00006795579547954093B3045093B4046093EA
:102A1000B5047093B6048091C51E81114BC04CED76
:102A200055E060E070E04093F0045093F10460934F
:102A3000F2047093F3044091B3045091B404609194
:102A4000B5047091B6047695679557954795409370
:102A5000B3045093B4046093B5047093B604E0914A
:102A6000A904F091AA0420813091A8048091830DDB
:102A7000807F232361F08034A1F42091E20B309118
:102A8000E30B28303105B1F49093C51E13C0803498
:102A900089F42091E20B3091E30B2530310551F49C
:102AA000F3CF803639F42091E20B3091E30B2730DD
:102AB000310551F32091C61E3091C71E80915F1FD2
:102AC0009091601F2817390720F08091521D87FFD1
:102AD0002FC08091C51E882359F18091830D807F7E
:102AE000803431F50E9406CC8091520390915303BB
:102AF000A0915403B0915503E091A904F091AA0468
:102B000080819091A804892399F08091E20B9091A3
:102B1000E30B8830910541F01092C51E8091701F23
:102B20008F5F8093701F08959093E30B8093E20B67
:102B30000895CF92DF92EF92FF92CF93DF930E949E
:102B400006CC60935F03709360038093610390935E
:102B5000620380915F0390916003A0916103B09143
:102B600062034091F90D5091FA0D6091FB0D709147
:102B7000FC0D841B950BA60BB70B809375039093EC
:102B80007603A0937703B093780340917503509137
:102B9000760360917703709178038091B3049091EC
:102BA000B404A091B504B091B604481759076A0758
:102BB0007B0708F4A5C080915F0390916003A0910A
:102BC0006103B09162038093F90D9093FA0DA09385
:102BD000FB0DB093FC0D8091750390917603A0914D
:102BE0007703B091780332E0B695A79597958795CE
:102BF0003A95D1F78093B3049093B404A093B504AD
:102C0000B093B6048091C51E882331F14091331FE3
:102C10005091341F6091351F7091361F8091571D60
:102C200090E0B0E0A0E084179507A607B707A0F4EE
:102C300080915B1D90E02091E20B3091E30B8217B5
:102C4000930709F049C02091521D27FF3BC0909384
:102C5000E30B8093E20B36C00E9406CC6093D50E46
:102C60007093D60E8093D70E9093D80E0E9406CC08
:102C70006B017C01C0915B1D2C2F30E050E040E0E7
:102C800060E87DE88BE590E00F94F12DC21AD30A3D
:102C9000E40AF50AC092D10ED092D20EE092D30E81
:102CA000F092D40ED0E0D093E30BC093E20B1092DD
:102CB000F0041092F1041092F2041092F30481E0F7
:102CC0008093C51E81E080935E03DF91CF91FF90DA
:102CD000EF90DF90CF9008954091331F5091341FB3
:102CE0006091351F7091361F4330510561057105A4
:102CF00008F4A9CF2091701F2F5F2093701FA3CFDE
:102D00008091DA0E9091DB0EA091DC0EB091DD0E79
:102D1000B695A795979587958093B3049093B4043F
:102D2000A093B504B093B604D0CFCF92DF92EF92C8
:102D3000FF920E9406CC60935F03709360038093C0
:102D400061039093620380915F0390916003A0916F
:102D50006103B09162034091F90D5091FA0D6091B9
:102D6000FB0D7091FC0D841B950BA60BB70B80938C
:102D7000750390937603A0937703B09378038091C3
:102D8000F90D9091FA0DA091FB0DB091FC0D892BDE
:102D90008A2B8B2BC1F4109275031092760310923C
:102DA00077031092780380915F0390916003A09164
:102DB0006103B09162038093F90D9093FA0DA09393
:102DC000FB0DB093FC0D409175035091760360911B
:102DD0007703709178038091B3049091B404A0912B
:102DE000B504B091B604481759076A077B0708F481
:102DF00096C08091541D8F77813009F0A5C0209135
:102E0000F90D3091FA0D4091FB0D5091FC0D809120
:102E1000AF049091B004A091B104B091B204281B0A
:102E2000390B4A0B5B0BA3E0B0E00F946C2E969528
:102E300087957795679560935A0370935B038093AA
:102E40005C0390935D038091F90D9091FA0DA09130
:102E5000FB0DB091FC0D8093AF049093B004A09350
:102E6000B104B093B2044091750350917603609120
:102E700077037091780380915A0390915B03A0913E
:102E80005C03B0915D03481759076A077B0738F563
:102E90008091F60D9091F70D049708F580917503D8
:102EA00090917603A0917703B091780332E0B695C4
:102EB000A795979587953A95D1F78093B30490930A
:102EC000B404A093B504B093B6048091F60D90912C
:102ED000F70D01969093F70D8093F60D10C081E0E9
:102EE00090E09093F70D8093F60D80935E0310921F
:102EF000B3041092B4041092B5041092B6048091F9
:102F00005F0390916003A0916103B091620380938D
:102F1000F90D9093FA0DA093FB0DB093FC0D8091E9
:102F2000C01F85FF57C080915E03882309F452C0FB
:102F3000E0915E0CF0915F0C1995893621E09207C3
:102F4000ACF088569140F9CF8111D9CF81E08093C0
:102F50005E038091750390917603A0917703B09101
:102F60007803B695A79597958795A7CF20914C1D87
:102F700030914D1D821B930B2091C61F2370223070
:102F800031F42091871E3091881E821B930B409153
:102F9000C81D9C01220F331F50E0A0E0B1E0A41B2C
:102FA000B50B0F944E306B017C01A091751FB09151
:102FB000761F9A010F945630C60ED71EE81EF91ED2
:102FC000CD2CDE2CEF2CFF24E7FCFA94D092761F58
:102FD000C092751FFF90EF90DF90CF900895CF9330
:102FE000DF932091121F26FD08C02091731F21112D
:102FF00007C08091741F81112AC0DF91CF9108957D
:103000004111FBCFE091490DF0914A0DEE0FFF1FEA
:10301000EE0FFF1FEA51F64F608371838283938323
:103020008091490D90914A0D8E37910508F063C04B
:103030008091490D90914A0D019690934A0D80938D
:10304000490D8091121F8F7B8093121FD6CFE09184
:10305000490DF0914A0DEF52FD4F1082E091A90405
:10306000F091AA0480819091A804892349F0E0910D
:10307000490DF0914A0DEF52FD4F808181608083B0
:10308000E091A604F091A70480819091A504892382
:1030900049F0E091490DF0914A0DEF52FD4F8081CA
:1030A00082608083442349F0E091490DF0914A0DFC
:1030B000EF52FD4F8081846080838091C51E8823FC
:1030C00049F0E091490DF0914A0DEF52FD4F80819A
:1030D00088608083C091490DD0914A0D0E9406CC32
:1030E000CC0FDD1FCC0FDD1FCA51D64F688379830B
:1030F0008A839B8395CF8091121F8064A5CF109205
:10310000EF0481E08093EF048091F9048330E1F4CF
:10311000E091A604F091A70480819091A5048923F1
:10312000F1F48091741F882319F18091EF048823B2
:10313000F9F0609175037091760380917703909117
:10314000780341E00C94EF17823079F4E091A60403
:10315000F091A70480819091A504892311F7E09153
:10316000F504F091F6041995DCCF8130C1F3D9CF85
:1031700008951092EF048091FA04833001F5E091F4
:10318000A904F091AA0480819091A804892331F5C3
:103190009091731F992321F09091EF04911102C037
:1031A0008091741F882309F16091710370917203FB
:1031B000809173039091740340E00C94EF17823078
:1031C00059F4E091A904F091AA0480819091A80497
:1031D000892321F080E0DCCF8130E1F7E091F70432
:1031E000F091F804199581E0D3CF0895833023E05E
:1031F000920709F42EC208F097C08C3022E09207A3
:1032000009F4A4C108F044C0853022E0920709F413
:1032100061C1E8F4813022E0920709F43DC150F425
:10322000811521E0920709F415C18130914009F41C
:103230002DC108952091391F833032E0930709F49E
:103240003BC108F42FC121FFE3C20C946FCA883040
:1032500022E0920709F45EC150F4863022E0920722
:1032600009F442C18730924009F44EC1089520917B
:10327000391F8A3032E0930709F464C108F454C15D
:1032800021FFC6C20E9438C980914006877F11C1C4
:10329000833122E0920709F495C138F58F3022E09E
:1032A000920709F473C150F48D3022E0920709F4BB
:1032B0005DC18E30924009F45FC108952091391F9D
:1032C000813132E0930709F475C108F46FC121FF21
:1032D00006C08091400690E2892780934006809145
:1032E000400685FD95C20C9480C8873122E0920784
:1032F00009F484C168F42091391F853132E09307C5
:1033000009F46EC108F464C121FF82C20C94F8C7AD
:10331000813023E0920709F48AC108F08EC1883118
:10332000924009F475C10895813133E0930709F49F
:1033300008C208F04AC08A3033E0930709F4C5C1D7
:1033400038F5863033E0930709F4A3C150F4843094
:1033500033E0930709F48DC18530934009F48FC1A0
:1033600008952091391F883033E0930709F4A5C1EF
:1033700008F49FC121FF06C080913F0694E0892791
:1033800080933F0680913F0682FD42C20C9436C670
:103390008D3023E0920709F4B8C150F48B3023E05C
:1033A000920709F498C18C30934009F49EC10895A6
:1033B0002091391F8F3033E0930709F4B4C108F42A
:1033C000AAC121FF25C20C941BC5883123E09207B6
:1033D00009F4F3C108F5843123E0920709F4D1C15F
:1033E00050F4823123E0920709F4B5C18331934050
:1033F00009F4C1C108952091391F863133E0930744
:1034000009F4D7C108F4C7C121FF02C20E940AC44F
:1034100080913F068F771AC1833029E9920709F41A
:1034200028C260F4813029E9920709F4F2C108F05A
:1034300008C28115994909F4CFC10895853039E949
:10344000930709F447C208F42CC28630994909F45D
:103450005AC208958091391F8D7F8093391F0E9431
:1034600044C70E94B4C60E9436C60E94C0C50E94CE
:1034700052C50E94B3CA0E942ACA0E94A9C90E94CA
:1034800038C91092400610923F0608958091391F66
:1034900082608093391F08958091391F81FFB8C1E0
:1034A0000C94F4CA21FFB4C10E94B3CA80914006B3
:1034B0008E7F80934006089521FF06C080914006CC
:1034C00091E08927809340068091400680FDA0C14D
:1034D0000C94B3CA8091391F81FF9AC10E942ACAF5
:1034E000809140068D7FE5CF8091391F81FF06C016
:1034F0008091400692E089278093400680914006A3
:1035000081FD86C10C942ACA8091391F81FF80C138
:103510000C94EAC98091391F81FF7AC10E94A9C920
:10352000809140068B7FC5CF21FF06C08091400669
:1035300094E08927809340068091400682FD68C10F
:103540000C94A9C921FF64C10C9471C98091391FE1
:1035500081FF06C08091400698E08927809340064D
:103560008091400683FD54C10C9438C98091391F65
:1035700081FF4EC10C940BC98091391F81FF48C156
:103580000E94DCC8809140068F7E93CF8091391FC6
:1035900081FF06C08091400690E189278093400614
:1035A0008091400684FD34C10C94DCC821FF30C1F9
:1035B0000C94AFC821FF2CC10E9480C880914006A6
:1035C0008F7D77CF8091391F81FF22C10C9453C822
:1035D00021FF1EC10E9424C8809140068F7B69CFC5
:1035E00021FF06C08091400690E489278093400621
:1035F0008091400686FD0CC10C9424C88091391F2F
:1036000081FF06C10E94CAC7809140068F7751CFC3
:103610008091391F81FF05C08091400680588093BA
:1036200040068091400687FDF3C00C94CAC7809184
:10363000391F81FFEDC00C9487C78091391F81FF2E
:10364000E7C00E9444C780913F068E7F80933F066B
:1036500008958091391F81FF06C080913F0691E057
:10366000892780933F0680913F0680FDD1C00C944E
:1036700044C78091391F81FFCBC00C94FFC6809155
:10368000391F81FFC5C00E94B4C680913F068D7F5F
:10369000DDCF8091391F81FF06C080913F0692E007
:1036A000892780933F0680913F0681FDB1C00C942D
:1036B000B4C621FFADC00C9475C621FFA9C00E94FD
:1036C00036C680913F068B7FC1CF8091391F81FF25
:1036D0009FC00C94FBC58091391F81FF99C00E9447
:1036E000C0C580913F06877FB1CF8091391F81FF90
:1036F00006C080913F0698E0892780933F0680911D
:103700003F0683FD85C00C94C0C58091391F81FFA1
:103710007FC00C9489C521FF7BC00E9452C5809157
:103720003F068F7E93CF21FF06C080913F0690E138
:10373000892780933F0680913F0684FD69C00C94E1
:1037400052C58091391F81FF63C00E94E4C48091FB
:103750003F068F7D7BCF8091391F81FF06C080910E
:103760003F0690E2892780933F0680913F0685FDC2
:103770004FC00C94E4C48091391F81FF49C00C9460
:10378000ADC48091391F81FF43C00E9476C48091EF
:103790003F068F7B5BCF21FF06C080913F0690E400
:1037A000892780933F0680913F0686FD31C00C94A7
:1037B00076C421FF2DC00C9440C48091391F81FF35
:1037C00005C080913F06805880933F0680913F0658
:1037D00087FD1EC00C940AC480E00E94ABDE9B01F2
:1037E000AC01211531054105510591F060E077E804
:1037F00083E993E00F94242E3093C70D2093C60DD8
:1038000081E00E9441D68091611F88608093611F92
:10381000089520917F1F3091801F21153105C1F33C
:10382000A0E1B7E20F947F2E2091C61E3091C71EF3
:1038300050E040E00F94242E3093CA0D2093C90D20
:10384000DFCF20917F1F3091801F2115310501F3BB
:10385000A0E1B7E20F947F2E2091C61E3091C71EC3
:1038600050E040E00F94242E3093CC0D2093CB0DEC
:10387000C7CF20917F1F3091801F2115310541F264
:10388000A0E1B7E20F947F2E2091C61E3091C71E93
:1038900050E040E00F94242E3093CE0D2093CD0DB8
:1038A000AFCF20917F1F3091801F2115310509F482
:1038B000AFCFA0E1B7E20F947F2E2091C61E3091CA
:1038C000C71E50E040E00F94242E3093D00D20937B
:1038D000CF0D96CF20917F1F3091801F211531058C
:1038E00009F496CFA0E1B7E20F947F2E2091C61E77
:1038F0003091C71E50E040E00F94242E3093D20D3B
:103900002093D10D7DCF20917F1F3091801F2115F5
:10391000310509F47DCFA0E1B7E20F947F2E20910D
:10392000C61E3091C71E50E040E00F94242E309305
:10393000D40D2093D30D64CFCF93DF9300D01F928B
:10394000CDB7DEB7982F803108F0E7C0E82FF0E060
:103950008827E255F34E8F4F0D944630C41C431D0B
:10396000BE1CCC1C521DD31C5B1DDA1CEA1C641D42
:103970006D1D121D1A1D761D3B1D7F1D603221E03D
:10398000720708F411C190E0892F0F900F900F90EB
:103990000F90DF91CF910895603281E0780798F71A
:1039A00085EF98E103C16032E1E07E0760F787E6CA
:1039B00096E1FCC06035710508F409C1603A7105F3
:1039C00008F41BC1603F7105F0F620EA30E080E0AA
:1039D00096E101C16033710508F423C160367105B9
:1039E00008F43AC16039710508F43BC1603C7105C7
:1039F00008F43CC1603F710508F43DC16032F1E05C
:103A00007F0708F43DC1603521E0720708F43DC12D
:103A1000603881E0780708F0B6CF80E591E045EEA8
:103A200051E103C16032E1E07E0708F0ACCF8CE3E6
:103A30009AE1BCC06035710508F4E4C0603A7105D4
:103A400008F4E5C0683B710508F09DCF605A710924
:103A50008EEB91E19A8389837C836B83603171055E
:103A600008F47CC0CE0101966431710508F473C07E
:103A70000E94BD135BC06032F1E07F0708F083CF86
:103A80008EEA97E193C06038710508F07CCF30E092
:103A900020E08FE59DE0621B730B860F971FFC01F2
:103AA000908172CF6038710508F06DCF30E020E072
:103AB0008CE49DE1F0CF6038710508F064CF30E010
:103AC00020E080EC9FE1E7CF603C710508F05BCF20
:103AD00030E020E085E09EE0DECF603C710508F03C
:103AE00052CF30E020E085E09EE1D5CF603871050F
:103AF00008F049CF30E020E084EE98E0CCCF60358C
:103B0000710508F489C06F3F710511F008F03BCFD3
:103B100020E530E089E89CE0BECF0F945D30CE0117
:103B200001962A32310568F00E94D913FC016081A8
:103B3000718177FF02C06F5F7F4F75956795962FF4
:103B400023CF0E94E713FC018081918164E670E03D
:103B50000F94DD2DF4CF0E94CB13F5CFE62FE37049
:103B6000EA5FEE0FE61BF0E0E254FE4E73C0CE01BA
:103B700001966834710518F00E94AF13D7CF0E94E8
:103B8000A113E1CF6031F1E07F0728F0CE0101966B
:103B90000E948513CBCF7727FB01EE0FFF1FE80FA5
:103BA000F91FE95FFE4FD0CF83E89BE19A838983B9
:103BB0007C836B836F3F710509F020F7262F2F70F0
:103BC0002858220F261B820F911DFC0143C030E0B4
:103BD00020E089E995E1621B730B9A8389837C83DA
:103BE0006B836034710518F6E62FE770E45EEE0F24
:103BF000E61BE80FF92FF11D2DC020E530E08BEC1E
:103C000094E1E9CF30E020E08DEF93E1E4CF20E5CF
:103C100030E084E694E1DFCF30E020E082E395E11C
:103C2000DACF90E080E04AEB53E19B01281B390B8F
:103C30005A8349833C832B832432310508F06FCFAC
:103C4000822F66E00F943A30915F990F921B490FD3
:103C5000511DFA01978198CE80E390E047E753E148
:103C6000E4CF80E690E044E353E1DFCF80E990E0E9
:103C700041EF52E1DACF80EC90E04EEA52E1D5CF4D
:103C800080EF90E04BE652E1D0CF80E291E048E255
:103C900052E1CBCFEF92FF921F93CF93DF9300D0EF
:103CA0001F92CDB7DEB7142F803108F001C1E82F85
:103CB000F0E08827E15AF14E8F4F0D944630741E84
:103CC0000E1F6F1E7E1E1D1F871E261F901EA21E0A
:103CD0002F1F381FCC1ED61E411F041F4A1F6032E3
:103CE00021E0720708F435C10F900F900F900F90EC
:103CF000DF91CF911F91FF90EF900895603241E0E6
:103D0000740790F795EFE92E98E1F92E26C16032FD
:103D100081E0780748F787E6E82E86E1F82E1DC196
:103D20006035710508F425C1603A710508F437C1A2
:103D3000603F7105C8F680EA90E050E0E52E56E15C
:103D4000F52E1DC16033710508F445C1603671055B
:103D500008F45FC16039710508F462C1603C710507
:103D600008F465C1603F710508F468C16032E1E0A4
:103D70007E0708F46AC16035F1E07F0708F46CC182
:103D8000603821E0720708F0AFCF80E591E025EEC2
:103D9000E22E21E1F22E25C1603241E0740708F0E5
:103DA000A3CFBCE3EB2EBAE1FB2ED7C06035710583
:103DB00008F4FCC0603A710508F4FFC0683B710567
:103DC00008F092CF605A71098EEB91E19A83898352
:103DD0007C836B836031710508F48EC0CE0101963F
:103DE0006431710508F481C00E94BD13212F30E0B9
:103DF000220F331FFC01318320838FEF9FE79093C5
:103E0000C1118093C01170CF603281E0780708F053
:103E10006BCFAEEAEA2EA7E1FA2E9FC0603871059B
:103E200008F062CF30E020E08FE59DE0621B730B6D
:103E3000860F971FFC01108357CF6038710508F07B
:103E400053CF30E020E08CE49DE1F0CF6038710585
:103E500008F04ACF30E020E080EC9FE1E7CF603C03
:103E6000710508F041CF30E020E085E09EE0DECF34
:103E7000603C710508F038CF30E020E085E09EE13D
:103E8000D5CF6038710508F02FCF30E020E084EE08
:103E900098E0CCCF6035710508F496C06F3F71058E
:103EA00011F008F021CF20E530E089E89CE0BECF9A
:103EB0000F945D30CE0101962A32310538F00E9410
:103EC000D913212F30E0220F331F06C00E94E713C1
:103ED000F4E61F9F90011124FC01318320838FEFB2
:103EE0009FE7F70193838283FFCE0E94CB13F4E612
:103EF0001F9F900111247ECFE62FE370EA5FEE0F43
:103F0000E61BF0E0E254FE4E478377CFCE010196E8
:103F10006834710518F00E94AF13D3CF0E94A1132B
:103F2000D7CF6031F1E07F0728F0CE0101960E94E3
:103F30008513C7CFFB01FF27EE0FFF1FEE0DFF1DFF
:103F4000E95FFE4F24E6129FC00111249183808314
:103F5000C6CF23E8E22E2BE1F22EFA82E9827C839F
:103F60006B836F3F710509F0E0F6E62FEF70E858BC
:103F700013C090E080E0F9E9EF2EF5E1FF2E681B19
:103F8000790BFA82E9827C836B836034710508F0D7
:103F9000BDCFE62FE770E45EEE0FE61B35C080E58F
:103FA00090E0EBECEE2EE4E1FE2EE9CF90E080E035
:103FB0004DEFE42E43E1F42EE2CF80E590E034E6CD
:103FC000E32E34E1F32EDBCF90E080E022E3E22E1B
:103FD00025E1F22ED4CF90E080E0BAEBEB2EB3E1F6
:103FE000FB2E9B01281B390BFA82E9823C832B8331
:103FF0002432310508F05ECF822F66E00F943A300C
:10400000EFE0E90FEE0FE21BEE0DFF2DF11D178320
:1040100066CF80E390E0A7E7EA2EA3E1FA2EE1CF96
:1040200080E690E0F4E3EF2EF3E1FF2EDACF80E9B3
:1040300090E0E1EFEE2EE2E1FE2ED3CF80EC90E0B7
:104040005EEAE52E52E1F52ECCCF80EF90E04BE614
:10405000E42E42E1F42EC5CF80E291E038E2E32E77
:1040600032E1F32EBECFCF93C82F843670F468EEC2
:104070007FE080EA9FE00E9414F5CA3030F466EEDB
:104080007FE080EA9FE00E9414F56C2F70E090E0E2
:1040900080E04AE00E944EF96AEE7FE080EA9FE00D
:1040A000CF910C9414F50F931F93CF93DF93EC01F2
:1040B0008B01C017D10771F0699170E090E080E04A
:1040C0004AE00E944EF964EE7FE080EA9FE00E94A1
:1040D00014F5EFCFDF91CF911F910F910C9439F927
:1040E0000F931F93CF93DF93EC018B01C017D10780
:1040F00021F089910E9494F9F9CFDF91CF911F911E
:104100000F910895CF92DF92EF92FF920F931F933A
:10411000CF93DF936C017B011092C9071092C807FF
:104120001092C70E8F2D90E00E940FF5C7010E94DC
:104130000FF5F092D308E092D2088601E701CC0D8A
:10414000DD1D0C171D07C9F0F80161918F0180EA90
:104150009FE00E949EF48091C8079091C907019644
:104160009093C9078093C80780EA9FE00E94C2BE6F
:10417000892B39F781E08093C70E8091C70E81119A
:104180002AC021E0A701B60180E490E20E94F1C1BB
:104190006B017C016F2D7727882799270E940BF5EB
:1041A0006E2D70E090E080E00E940BF56D2D70E0C8
:1041B00090E080E00E940BF5C701B60177278827C1
:1041C0009927DF91CF911F910F91FF90EF90DF9092
:1041D000CF900C940BF5DF91CF911F910F91FF9031
:1041E000EF90DF90CF900895DF92EF92FF920F93C0
:1041F0001F93CF93DF93EC018B018091DF0E9091A1
:10420000E00EA091E10EB091E20E0097A105B1057C
:1042100011F41092271F0196A11DB11D8093DF0E8E
:104220009093E00EA093E10EB093E20E8091C51E34
:104230003091131F2091131F90E091958195910962
:1042400083278078992782278093131F1092CA07AB
:10425000D12CED2CF12CE016F10658F4C7018C0F8F
:104260009D1F0E9465EFF701E653F84F8183D394B9
:10427000F0CF8091611F877F8093611FDF91CF9185
:104280001F910F91FF90EF90DF900895E0915B1DDB
:10429000F0E088E691E0BF010F94DD2D7093D00E21
:1042A0006093CF0E8091511D81FF09C080ED92E097
:1042B000BF010F94DD2D7093D00E6093CF0E8FEF62
:1042C00090E09093E30B8093E20B8CE291E0E89F07
:1042D0009001E99F300DF89F300D1124032E000C42
:1042E000440B550B60E472E48FE090E00F94F12DE5
:1042F0002093F0043093F1044093F2045093F304BC
:1043000081E493E0A0E0B0E08093B3049093B40420
:10431000A093B504B093B6041092E40B81E08093AF
:10432000D90E2091CF0E3091D00EA5E0BDE00F94B4
:104330007F2E60931E0270931F0280932002909341
:10434000210208952091580C3091590C232B09F02B
:1043500058C22091C61E3091C71E232B09F451C2AA
:1043600020916B0330916C032617370709F070C05A
:104370002091F0103091F1102330310561F540911A
:10438000240150912501A0914A0CB0914B0CA81B1F
:10439000B90B8091190290911A02A817B907B4F0CD
:1043A000A81BB90B2091480C3091490C0F94563042
:1043B000F6E09695879577956795FA95D1F7640F0E
:1043C000751F70932901609328010895B7FFEACF04
:1043D000A80FB91FE7CF4091331F5091341F609150
:1043E000351F7091361F473051056105710508F47E
:1043F00008C24091240150912501A0914A0CB0912E
:104400004B0CA81BB90B8091190290911A02A817A6
:10441000B907CCF0A81BB90B2091480C3091490C7E
:104420000F945630E6E09695879577956795EA95CF
:10443000D1F7640F751F7093FE106093FD1081E03B
:10444000809304110895B7FFE7CFA80FB91FE4CFF9
:104450002091690330916A032617370709F070C06D
:104460002091D7103091D8102330310561F540915B
:10447000240150912501A091F90BB091FA0BA81BD2
:10448000B90B8091190290911A02A817B907B4F0DC
:10449000A81BB90B2091480C3091490C0F94563051
:1044A00036E096958795779567953A95D1F7640F9D
:1044B000751F70932B0160932A010895B7FFEACF0F
:1044C000A80FB91FE7CF4091331F5091341F60915F
:1044D000351F7091361F473051056105710508F48D
:1044E00090C14091240150912501A091F90BB09108
:1044F000FA0BA81BB90B8091190290911A02A81708
:10450000B907CCF0A81BB90B2091480C3091490C8D
:104510000F94563026E096958795779567952A955E
:10452000D1F7640F751F7093E5106093E41081E07C
:104530008093EB100895B7FFE7CFA80FB91FE4CF22
:1045400020916703309168032617370709F070C080
:104550002091BE103091BF102330310561F540919C
:10456000240150912501A091F50BB091F60BA81BE9
:10457000B90B8091190290911A02A817B907B4F0EB
:10458000A81BB90B2091480C3091490C0F94563060
:10459000B6E09695879577956795BA95D1F7640FAC
:1045A000751F70932D0160932C010895B7FFEACF1A
:1045B000A80FB91FE7CF4091331F5091341F60916E
:1045C000351F7091361F473051056105710508F49C
:1045D00018C14091240150912501A091F50BB09193
:1045E000F60BA81BB90B8091190290911A02A8171B
:1045F000B907CCF0A81BB90B2091480C3091490C9D
:104600000F945630A6E09695879577956795AA956D
:10461000D1F7640F751F7093CC106093CB1081E0BD
:104620008093D2100895B7FFE7CFA80FB91FE4CF4A
:1046300020916503309166032617370709F070C093
:104640002091A5103091A6102330310561F54091DD
:10465000A4005091A500A091F70BB091F80BA81BF6
:10466000B90B8091190290911A02A817B907B4F0FA
:10467000A81BB90B2091480C3091490C0F9456306F
:10468000F6E09695879577956795FA95D1F7640F3B
:10469000751F7093A9006093A8000895B7FFEACF33
:1046A000A80FB91FE7CF4091331F5091341F60917D
:1046B000351F7091361F473051056105710508F4AB
:1046C000A0C04091A4005091A500A091F70BB0911B
:1046D000F80BA81BB90B8091190290911A02A81728
:1046E000B907CCF0A81BB90B2091480C3091490CAC
:1046F0000F945630E6E09695879577956795EA95FD
:10470000D1F7640F751F7093B3106093B21081E0FE
:104710008093B9100895B7FFE7CFA80FB91FE4CF72
:1047200020915003309151032617370709F069C0D3
:1047300020918C1030918D102330310561F540911E
:10474000A4005091A500A091FB0BB091FC0BA81BFD
:10475000B90B8091190290911A02A817B907B4F009
:10476000A81BB90B2091480C3091490C0F9456307E
:1047700036E096958795779567953A95D1F7640FCA
:10478000751F7093AD006093AC000895B7FFEACF3A
:10479000A80FB91FE7CF4091331F5091341F60918C
:1047A000351F7091361F473051056105710548F17D
:1047B0004091A4005091A500A091FB0BB091FC0B7F
:1047C000A81BB90B8091190290911A02A817B9077A
:1047D000CCF0A81BB90B2091480C3091490C0F94D8
:1047E000563026E096958795779567952A95D1F767
:1047F000640F751F70939A106093991081E08093F5
:10480000A0100895B7FFE7CFA80FB91FE4CFCF934B
:104810000E9406CC6093790370937A0380937B03A4
:1048200090937C038091790390917A03A0917B030C
:10483000B0917C034091D50E5091D60E6091D70E69
:104840007091D80E841B950BA60BB70B8093710348
:1048500090937203A0937303B09374034091710318
:104860005091720360917303709174038091F0040E
:104870009091F104A091F204B091F3044817590704
:104880006A077B0768F48091331F9091341FA091D1
:10489000351FB091361F892B8A2B8B2B09F02FC324
:1048A00081E08093EF048091710390917203A09155
:1048B0007303B091740362E0B695A79597958795B9
:1048C0006A95D1F78093F0049093F104A093F204D9
:1048D000B093F3048091D50E9091D60EA091D70E8F
:1048E000B091D80E8093D10E9093D20EA093D30E98
:1048F000B093D40E8091790390917A03A0917B03B9
:10490000B0917C038093D50E9093D60EA093D70ED2
:10491000B093D80E8091E20B9091E30B01969093A7
:10492000E30B8093E20B8091E20B9091E30B0197F4
:1049300059F02091E20B3091E30B8091AD049091FE
:10494000AE0482179307C8F581E090E09093E30BE3
:104950008093E20B8091BB049091BC04A091BD04B4
:10496000B091BE048093B7049093B804A093B904A7
:10497000B093BA048091790390917A03A0917B035C
:10498000B0917C038093BB049093BC04A093BD04BE
:10499000B093BE048091331F9091341FA091351FB6
:1049A000B091361F0196A11DB11D8093331F9093C6
:1049B000341FA093351FB093361F8091C51E8823E6
:1049C00009F46BC28091151F81FF3EC08091581D74
:1049D00087FF3AC04091331F5091341F6091351FBB
:1049E0007091361F8091571D90E0B0E0A0E048170D
:1049F00059076A077B0740F18091830D807F8034DF
:104A000009F07BC08091E20B9091E30B019789F054
:104A10008091E20B9091E30B059759F08091E20BA6
:104A20009091E30B039751F40E94B4C60E94C0C555
:104A30000BC00E9444C70E9436C606C08091E20B9C
:104A40009091E30B079781F3C091581D8C2F8076CE
:104A5000F091830DEF2FE07F803241F02091C61E50
:104A60003091C71E2837354008F0FAC08091E20B1C
:104A70009091E30B019709F470C08091E20B909143
:104A8000E30B039709F469C08091E20B9091E30B6B
:104A9000059709F462C08091E20B9091E30B0797B0
:104AA00009F45BC08091E20B9091E30B099709F444
:104AB00054C08091E20B9091E30B0B9709F44DC029
:104AC000E03409F0B7C08EE690E09093D00E80936A
:104AD000CF0E209171033091720340917303509176
:104AE0007403A3E0B0E00F946C2E33E096958795A5
:104AF000779567953A95D1F7FBC0803609F0A4CF3A
:104B00008091E20B9091E30B019779F08091E20B99
:104B10009091E30B079749F08091E20B9091E30BA2
:104B2000039731F40E94B4C68FCF0E9444C78CCF44
:104B30008091E20B9091E30B0997A1F38091E20B36
:104B40009091E30B059709F476CF8091E20B909159
:104B5000E30B0B9709F078CF6ECF86E490E0E0345A
:104B600009F439C1E036E9F486E490E09093D00E80
:104B70008093CF0E8091710390917203A091730383
:104B8000B091740352E0B695A795979587955A957D
:104B9000D1F78093F0049093F104A093F204B093C2
:104BA000F3048091850D86FFAAC180914C1D9091E0
:104BB0004D1D892B09F0A3C1E03409F0A0C18091FB
:104BC000F81E18160CF09BC1A091E20BB091E30BFC
:104BD0008091190290911A02AA0FBB1FA354BB4FD8
:104BE0002D913C91A091E20BB091E30BAA0FBB1F5A
:104BF000A354BB4F281739070CF434C12D913C91B5
:104C0000A901481B590BCA01CC71CC3061F0F29557
:104C1000FF702F2F30E04091E20B5091E30B2417EF
:104C2000350708F433C16091E20B7091E30BCF912B
:104C30000C94A22182E390E0E03609F0B2CF909389
:104C4000D00E8093CF0E8091710390917203A0914A
:104C50007303B0917403B695A7959795879599CFEF
:104C6000803409F05FC08091E20B9091E30B0197D3
:104C700019F18091E20B9091E30B0397E9F0809199
:104C8000E20B9091E30B0597B9F08091E20B9091C4
:104C9000E30B079789F08091E20B9091E30B099762
:104CA00059F08091E20B9091E30B0B9729F0E034DF
:104CB00041F58EE690E0C3CF86E490E09093D00E6D
:104CC0008093CF0EE03409F0BECF20917103309174
:104CD00072034091730350917403A5E0B0E00F9408
:104CE0006C2E42E096958795779567954A95D1F712
:104CF0006093F0047093F1048093F2049093F304B2
:104D000050CF82E390E09093D00E8093CF0E20910D
:104D10007103309172034091730350917403A3E0C7
:104D2000B0E0DDCF803609F063C08091E20B909156
:104D3000E30B0197E1F18091E20B9091E30B039774
:104D4000B1F18091E20B9091E30B059781F1809195
:104D5000E20B9091E30B079751F18091E20B909158
:104D6000E30B099721F18091E20B9091E30B0B97F4
:104D7000F1F082E390E0E03471F58EE690E09093FC
:104D8000D00E8093CF0E2091710330917203409129
:104D9000730350917403A9E0B0E00F946C2EA5E06A
:104DA0009695879577956795AA95D1F7A1CF86E4D3
:104DB00090E09093D00E8093CF0EE03409F043CF73
:104DC00020917103309172034091730350917403E9
:104DD000ABE0B0E088CE9093D00E8093CF0E809160
:104DE000710390917203A0917303B0917403D1CEBB
:104DF0001092F0041092F1041092F2041092F30455
:104E00008091E20B9091E30B019729F18091E20BE5
:104E10009091E30B0397F9F08091E20B9091E30BF3
:104E20000597C9F08091E20B9091E30B079799F0F9
:104E30008091E20B9091E30B099769F08091E20B6E
:104E40009091E30B0B9739F082E390E0E03429F482
:104E50008EE690E002C086E490E09093D00E8093BE
:104E6000CF0E9FCE2D913C91A091E20BB091E30B20
:104E7000AA0FBB1FA354BB4F37FF05C02D913C9118
:104E8000820F931FC1CE8D919C91BECE6091E20B9B
:104E90007091E30B621B730BCACE1092B304109295
:104EA000B4041092B5041092B604E091A904F091F4
:104EB000AA0480819091A804E091A604F091A7042F
:104EC0008923B1F480819091A5048923F1F0808138
:104ED0009091A504892399F080915E03882379F04D
:104EE0008091830D807F803401F585E090E018C0CB
:104EF00080819091A504892321F410925E03CF91C3
:104F0000089581E080935E03FACF80915E03882349
:104F1000F1F28091830D807F803489F781E090E009
:104F20009093E30B8093E20BEACF803641F782E067
:104F300090E09093E30B8093E20B81E08093C51E99
:104F4000DECF0F931F938091710390917203A09114
:104F50007303B091740380936D0390936E03A093D9
:104F60006F03B09370030E9406CC60937903709333
:104F70007A0380937B0390937C03809179039091D3
:104F80007A03A0917B03B0917C034091D50E5091A0
:104F9000D60E6091D70E7091D80E841B950BA60B80
:104FA000B70B8093710390937203A0937303B09334
:104FB00074038091E20B9091E30B01969093E30BC5
:104FC0008093E20B81E08093EF044091D50E5091E5
:104FD000D60E6091D70E7091D80E452B462B472BDD
:104FE00009F483C04091D10E5091D20E6091D30E3E
:104FF0007091D40E452B462B472B09F476C0209197
:10500000E20B3091E30B2830310548F121E030E02C
:105010003093E30B2093E20B4091BB045091BC040E
:105020006091BD047091BE044093B7045093B804DE
:105030006093B9047093BA044091790350917A0354
:1050400060917B0370917C034093BB045093BC043C
:105050006093BD047093BE048093D90E46C0409106
:105060006D0350916E0360916F037091700376959C
:105070006795579547954093560350935703609310
:10508000580370935903009171031091720320919A
:10509000730330917403409156035091570360910C
:1050A0005803709159030417150726073707A0F610
:1050B00023E030E03093E30B2093E20B8093C51E96
:1050C0001092D90E8091331F9091341FA091351FFB
:1050D000B091361F0196A11DB11D8093331F90938F
:1050E000341FA093351FB093361F8091850D86FF26
:1050F0002BC08091E20B9091E30B039729F1209153
:10510000E20B3091E30B80914C1D90914D1D8A96DE
:1051100023303105E0F52091E20B3091E30B6091F3
:10512000CF0E7091D00E21503109269FA001279FEC
:10513000500D369F500D1124840F951F6091E20B86
:105140007091E30B0E94A2218091D50E9091D60E12
:10515000A091D70EB091D80E8093D10E9093D20E1D
:10516000A093D30EB093D40E8091790390917A03DB
:10517000A0917B03B0917C038093D50E9093D60EC3
:10518000A093D70EB093D80E1F910F910895209140
:10519000E20B3091E30B6091CF0E7091D00E225054
:1051A0003109C3CFCF92DF92EF92FF92FB01C09003
:1051B000331FD090341FE090351FF090361F409180
:1051C000571D50E070E060E0C416D506E606F7060D
:1051D00008F48DC09091C51E911104C09091611F7B
:1051E00094FF85C04091D50E5091D60E6091D70E98
:1051F0007091D80E452B462B472B09F478C040916F
:10520000D10E5091D20E6091D30E7091D40E452BD9
:10521000462B472B09F46BC0C090D50ED090D60E0C
:10522000E090D70EF090D80E4091D10E5091D20E52
:105230006091D30E7091D40E4C155D056E057F05FF
:1052400008F055C0F8942091D50E3091D60E4091BB
:10525000D70E5091D80EC090D10ED090D20EE090C3
:10526000D30EF090D40E2C193D094E095F09A82FDA
:10527000B0E00F946C2E6093DA0E7093DB0E809387
:10528000DC0E9093DD0E7894E03DF240A1F4809125
:10529000DA0E9091DB0EA091DC0EB091DD0EB6958A
:1052A000A795979587958093DA0E9093DB0EA09340
:1052B000DC0EB093DD0E2091DA0E3091DB0E4091C2
:1052C000DC0E5091DD0E60E077E883E993E00F9407
:1052D000242EC901803526E4920720F08091C61E55
:1052E0009091C71EFF90EF90DF90CF90089590E0CF
:1052F00080E0F8CF9B01AC018091581D807649F485
:105300001092F0041092F1041092F2041092F3043F
:105310000895803281F472E0569547953795279528
:105320007A95D1F72093F0043093F1044093F2047E
:105330005093F3040895803429F456954795379592
:105340002795F0CF8036E1F6A3E0B0E00F946C2E05
:1053500022E096958795779567952A95D1F7609382
:10536000F0047093F1048093F2049093F304089591
:105370000E9406CC6093790370937A0380937B0339
:1053800090937C038091790390917A03A0917B03A1
:10539000B0917C034091D50E5091D60E6091D70EFE
:1053A0007091D80E841B950BA60BB70B80937103DD
:1053B00090937203A0937303B093740340917103AD
:1053C0005091720360917303709174038091F004A3
:1053D0009091F104A091F204B091F3044817590799
:1053E0006A077B0708F4E4C08091C51E882371F129
:1053F00060917103709172038091730390917403B3
:105400000E947A292091E20B3091E30B8091AD0448
:105410009091AE042817390711F12091C51E22235F
:10542000F1F02091E20B3091E30B2817390708F4D3
:10543000C0C08091C51E882309F44DC08091701FA3
:105440008F5F8093701F1092C51E45C01092F004AC
:105450001092F1041092F2041092F304D3CF81E081
:1054600090E09093E30B8093E20B8091BB049091CA
:10547000BC04A091BD04B091BE048093B704909386
:10548000B804A093B904B093BA04809179039091C1
:105490007A03A0917B03B0917C038093BB0490932B
:1054A000BC04A093BD04B093BE0481E08093C51EEC
:1054B0008091331F9091341FA091351FB091361FFA
:1054C0000196A11DB11D8093331F9093341FA093AB
:1054D000351FB093361F81E08093EF048091581DF3
:1054E00087FF0CC08091151F81FF08C00E9444C730
:1054F0000E94B4C60E9436C60E94C0C58091850D28
:1055000086FF36C02091E20B3091E30B4091CF0E25
:105510005091D00E21503109249FC001259F900D3C
:10552000349F900D112420914C1D30914D1D820F00
:10553000931F2091190230911A02821793070CF4DD
:1055400042C0821B930B2091AD043091AE0436957E
:1055500027954091E20B5091E30B6091E20B709123
:10556000E30B2417350710F4621B730B0E94A22172
:105570008091D50E9091D60EA091D70EB091D80EF5
:105580008093D10E9093D20EA093D30EB093D40EED
:105590008091790390917A03A0917B03B0917C0371
:1055A0008093D50E9093D60EA093D70EB093D80EBD
:1055B00008958091E20B9091E30B01969093E30B99
:1055C0008093E20B88CF97FFBECF820F931FBBCF94
:1055D0000E9406CC6093790370937A0380937B03D7
:1055E00090937C038091790390917A03A0917B033F
:1055F000B0917C034091D50E5091D60E6091D70E9C
:105600007091D80E841B950BA60BB70B809371037A
:1056100090937203A0937303B0937403409171034A
:105620005091720360917303709174038091F00440
:105630009091F104A091F204B091F3044817590736
:105640006A077B0708F4DFC08091E20B9091E30BBF
:1056500001969093E30B8093E20B81E08093EF043B
:105660008091D50E9091D60EA091D70EB091D80E04
:105670008093D10E9093D20EA093D30EB093D40EFC
:105680008091790390917A03A0917B03B0917C0380
:105690008093D50E9093D60EA093D70EB093D80ECC
:1056A0008091C51E882309F470C08091E20B90910F
:1056B000E30B019751F08091E20B9091E30B209165
:1056C0005B1D2817190608F056C081E090E0909302
:1056D000E30B8093E20B80915E0391E08927809336
:1056E0005E038091BB049091BC04A091BD04B09175
:1056F000BE048093B7049093B804A093B904B09308
:10570000BA048091790390917A03A0917B03B091C0
:105710007C038093BB049093BC04A093BD04B0931E
:10572000BE048091331F9091341FA091351FB0911A
:10573000361F0196A11DB11D8093331F9093341F16
:10574000A093351FB093361F8091511D81FF13C068
:105750008091331F9091341FA091351FB091361F57
:105760000196A11DB11D8093331F9093341FA09308
:10577000351FB093361F6091710370917203809151
:105780007303909174030E947A298091850D86FF9E
:105790003AC08091151F81FD36C02091E20B3091F7
:1057A000E30B4091CF0E5091D00E21503109249F30
:1057B000C001259F900D349F900D112420914C1D08
:1057C00030914D1D820F931F2091581D2C712C304C
:1057D00041F420915E03222321F02091511D21FFED
:1057E00006C06091E20B7091E30B0C94A221209112
:1057F000E20B3091E30B60915B1D620F732F711D03
:1058000088599E4FF2CF0895CF92DF92EF92FF9288
:105810000E9406CC6093790370937A0380937B0394
:1058200090937C038091790390917A03A0917B03FC
:10583000B0917C034091D50E5091D60E6091D70E59
:105840007091D80E841B950BA60BB70B8093710338
:1058500090937203A0937303B09374034091710308
:105860005091720360917303709174038091F004FE
:105870009091F104A091F204B091F30448175907F4
:105880006A077B0708F45AC28091E20B9091E30B00
:1058900001969093E30B8093E20B81E08093EF04F9
:1058A0008091D50E9091D60EA091D70EB091D80EC2
:1058B000892B8A2B8B2B09F4B7C08091D10E909144
:1058C000D20EA091D30EB091D40E892B8A2B8B2BA4
:1058D00009F4AAC08091C51EE091AD04F091AE0418
:1058E000811102C1A0915C1D2091D50E3091D60E80
:1058F0004091D70E5091D80EA13009F03CC1809153
:10590000D10E9091D20EA091D30EB091D40E281B3F
:10591000390B4A0B5B0BA3E0B0E00F946C2E96950D
:105920008795779567956093560370935703809397
:105930005803909359038091D50E9091D60EA09163
:10594000D70EB091D80E892B8A2B8B2B61F08091CA
:10595000D10E9091D20EA091D30EB091D40E892B7E
:105960008A2B8B2B41F410927103109272031092C8
:10597000730310927403409171035091720360910C
:105980007303709174038091560390915703A09113
:105990005803B091590384179507A607B70740F03D
:1059A0008091E20B9091E30BE817F90708F0B5C07E
:1059B0008091E20B9091E30B8E179F0720F480916A
:1059C000C51E8111E8C08091C51E8111F1C0809172
:1059D000611F84FDEDC01092331F1092341F10928E
:1059E000351F1092361F81E090E09093E30B809377
:1059F000E20B8091541D982F9F77923009F06CC173
:105A0000E091A604F091A70420813091A50487FBC2
:105A1000882780F9232331E009F430E08313F3C0B1
:105A200081E080935E03F1C08091D50E9091D60EF7
:105A3000A091D70EB091D80E8093D10E9093D20E34
:105A4000A093D30EB093D40E8091790390917A03F2
:105A5000A0917B03B0917C038093D50E9093D60EDA
:105A6000A093D70EB093D80E8091850D86FF66C1A6
:105A70008091151F81FD62C12091E20B3091E30BF3
:105A80004091CF0E5091D00E21503109249FC0017A
:105A9000259F900D349F900D112420914C1D309125
:105AA0004D1D820F931F2091190230911A02821707
:105AB00093070CF432C1821B930B2091581D2C715B
:105AC0002C3041F420915E03222321F02091511DBE
:105AD00021FF28C16091E20B7091E30BFF90EF90E2
